:020000040800F2
:100000000020002089260008330D0008350D000867
:1000100000000000000000000000000000000000E0
:10002000000000000000000000000000370D000884
:100030000000000000000000390D00083B0D000822
:10004000D9260008D9260008D9260008D926000894
:10005000D9260008D9260008D9260008D926000884
:10006000D9260008D9260008D9260008D926000874
:10007000D9260008D9260008D9260008D926000864
:10008000D9260008D926000800000000D92600085B
:10009000D9260008D9260008D9260008D926000844
:1000A000D9260008D9260008D9260008D926000834
:1000B000D926000800000000D92600080000000032
:1000C00010B5064C2378002B07D1054B002B02D02E
:1000D000044800E000BF0123237010BD0C00002085
:1000E0000000000048270008044B10B5002B03D087
:1000F0000349044800E000BF10BDC04600000000F6
:100100001000002048270008002243088B4274D3C7
:1001100003098B425FD3030A8B4244D3030B8B4208
:1001200028D3030C8B420DD3FF22090212BA030C11
:100130008B4202D31212090265D0030B8B4219D3F2
:1001400000E0090AC30B8B4201D3CB03C01A524112
:10015000830B8B4201D38B03C01A5241430B8B425A
:1001600001D34B03C01A5241030B8B4201D30B0343
:10017000C01A5241C30A8B4201D3CB02C01A52416A
:10018000830A8B4201D38B02C01A5241430A8B422D
:1001900001D34B02C01A5241030A8B4201D30B0216
:1001A000C01A5241CDD2C3098B4201D3CB01C01A30
:1001B000524183098B4201D38B01C01A524143093A
:1001C0008B4201D34B01C01A524103098B4201D328
:1001D0000B01C01A5241C3088B4201D3CB00C01A95
:1001E000524183088B4201D38B00C01A524143080D
:1001F0008B4201D34B00C01A5241411A00D2014632
:10020000524110467047FFE701B5002000F006F8A4
:1002100002BDC0460029F7D076E770477047C04658
:100220008446100062468C461900634600E0C046D2
:100230001FB500F0D1FB002801D40021C8421FBD2A
:1002400010B500F021FB4042013010BD10B500F0A8
:10025000C3FB002801DB002010BD012010BDC046FB
:1002600010B500F0B9FB002801DD002010BD012011
:1002700010BDC04610B500F049FB002801DC00208D
:1002800010BD012010BDC04610B500F03FFB002896
:1002900001DA002010BD012010BDC046F0B5574660
:1002A0004E464546DE46E0B5814605000C03480053
:1002B00092461F0085B0240B400DCE0F002800D1C0
:1002C00056E1D44B984200D172E16B0FE4001C431D
:1002D00080231B0423439846CF4BED009B4600230D
:1002E0009946834400933C037B005046240B5B0DEE
:1002F000FF0F002B00D11FE1C64A934200D162E1FB
:10030000C549420F8C46E400594614438022634499
:100310001204CB1A14439B46C200002033007B40DA
:100320009A464B460F2B27D8BC499B00CB589F467B
:10033000B246009B022B16D0032B00D18EE2012B7C
:1003400000D0D9E000230024002552461B0523439A
:10035000D20713432800190005B0F0BCBB46B246D3
:10036000A946A046F0BD00240025AA4BEDE7BA46F9
:10037000A04615000090DCE7444500D2C7E100D15B
:10038000C2E101235B429C462E0040460025E34427
:100390002302140E1C431B0C994623041F0C12024B
:1003A000494600920197FFF735FF02007A430B049C
:1003B000310C804619438A4207D901235B429C468F
:1003C0000919E0448C4200D807E2881A4946FFF731
:1003D00021FF09048C4631046646019A090C424308
:1003E000030031438A4204D90919013B8C4200D8E9
:1003F000EDE1881A424612041A4390464146009B9A
:100400000E041B0C1F000293009B360C1B04190CDE
:100410000B007343120C7E43039151437A431F0C2C
:10042000BC4676186644B14203D9802149028C4605
:100430006244310C8A1831041E04360C8E19904225
:1004400002D312D1B54210D24346591E009B9C469E
:1004500065441F009D429B415B421B19C0188442AA
:1004600000D2A0E100D19BE18846AE1BB542AD4170
:10047000801A6D42401B844200D1D5E14946FFF706
:10048000C9FE019A0B044243310C050019438A420C
:1004900000D96CE1881A4946FFF7BCFE019A360480
:1004A00042430904360C03000E43B24200D953E123
:1004B0000398B61A02002D041D43029F2B041B0C47
:1004C0005A437B439C46290C4843130C84446344A1
:1004D0007943984203D98020400284466144180C35
:1004E00012041B04120C41189B188E4200D2FFE02C
:1004F00000D1FAE001231D43494A5A44002A00DC96
:10050000AAE06B0700D03DE1ED084346DB0106D5CC
:100510004246444B1A4090468022D2005A44424BF5
:100520009A4200DD1FE743465B071D4343465205E1
:100530005C02240B530D08E75246224300D17BE0B6
:10054000002C00D1FAE0200000F0DAFA02000B3AA9
:100550001D2301009B1A52460839DA408C4014438F
:1005600052468A40314B58449B4683440020D5E68E
:100570004B462343984644D0002C00D1CEE02000C7
:1005800000F0BEFA010002000B391D235B1A494638
:100590001000D940083884400B004D46234398464C
:1005A00085402348831A9B460023994600939AE688
:1005B0004B46234398461DD108239946063B002508
:1005C000834600938FE65246224309D102234946CF
:1005D0001943184B89469C4600240220E3449DE6BB
:1005E00003234A461A43134B91469C465246032026
:1005F000E34493E60C239946093BA04683460093C7
:1006000071E60423994600239B460133002500939D
:1006100069E6C046FF07000001FCFFFF60270008F5
:10062000FF030000FFFFFFFEFE070000F3030000D2
:100630000DFCFFFF01F8FFFF4946012319438946DE
:10064000002401206AE6002380249A4600258A4B74
:1006500024037AE601256D4201239B1A382B00DD25
:1006600070E61F2B00DCBFE01F2149428A1A414679
:10067000D1400A00202B04D04146804B5B44994076
:100680000D436B1E9D4107232A431D000024154086
:10069000134200D1D4E00F2100231140042900D1DE
:1006A000CBE0111D9142924152429B180A0019025F
:1006B00000D4C2E001230024002546E68023414601
:1006C0001B03194208D01C4206D11C432403BA461E
:1006D0001500694B240B38E68024434624031C4351
:1006E0002403B246644B240B2FE6002B00D103E712
:1006F000A619681EA64200D28DE08E4200D2A3E069
:1007000000D1B3E00500F5E6AA4200D939E6434638
:10071000DE0758086B081E43ED0739E6484600F02F
:10072000EFF901000200153120321C2900DC2CE712
:100730004B46083883400025984632E700F0E0F940
:1007400003001A00153220301C2A00DC00E7544652
:10075000083B00229C4005E73619013BB44200D912
:10076000A6E6B24200D8A3E6831E3619A0E6091910
:10077000013D8C4200D98DE68A4200D88AE6851E6A
:10078000091987E60F232B40042B00D1BCE6052373
:100790005B42AB429B4104355B42ED089844B4E6B2
:1007A000AF4200D960E6824204D800D05CE6AE4297
:1007B00000D859E602235B429C46009BE0449C46DD
:1007C00065449D429B415B421B19C0184DE68A421D
:1007D00000D80EE6831E09190BE68A4200D8F4E51C
:1007E000831E98460919F0E52549280059448D4093
:1007F00042468A40691E8D414146D840D940024355
:100800002A430B00510700D151E70F211140042961
:1008100000D046E74BE705008E4200D06AE6009A1A
:10082000934200D066E667E6164A5A44002A00DC86
:1008300010E701230025984467E65D075B021C0B67
:10084000D2080023154380E50098023D4200824211
:10085000BF417F423C1936190092DDE780244346B0
:1008600024031C432403044B240B6EE5009A9A4294
:10087000EAD30500D3E7C046FF0700003E040000AE
:100880001E040000FF030000F0B54E464546DE465C
:1008900057469046E0B517001A03120B0500844630
:1008A00019480E034C0091465A00DB0F9B46360B4D
:1008B000640DC90F520D844219D0824210D001201C
:1008C00094420ED14E450CD10120C44509D1594561
:1008D00017D0002C05D130002843431E984100E07A
:1008E0000120F0BCBB46B246A946A046F0BD33008D
:1008F00001202B43F5D1A242F3D14B463B43F0D12B
:10090000E2E70020EDE7C046FF070000F0B54746EC
:10091000CE460400180016001B031B0B2D4D4A0089
:10092000994680B543000F03A446B0463F0B520DD5
:10093000C90F5B0DC00FAA4221D0AB4213D0002AD1
:1009400022D13C43002B02D14D462E4322D0002C15
:1009500010D0814222D00220013908400138C0BCA9
:10096000B946B046F0BD4D462E4329D1002AF0D1FC
:100970003C43EED10028F2D101204042EFE73D0098
:1009800025431DD19342EED0002BE2D14C462643A5
:10099000DFD1E0E70020002CE1D0DCE79A420ADC5E
:1009A000E8DB4F45D7D80ED000204F45D7D20029DD
:1009B000E2D00800D3E74342584140000138CEE777
:1009C00002204042CBE7C445C5D80020C445C6D26A
:1009D000EDE7C046FF070000F0B54746CE460400ED
:1009E000180016001B031B0B2C4D4A00994680B5BE
:1009F00043000F03A446B0463F0B520DC90F5B0DD9
:100A0000C00FAA420DD0AB4210D0002A27D13C43E0
:100A1000002B11D14D462E430ED10020002C15D0B5
:100A20000EE03D00254310D1934218D14D462E4390
:100A30000BD1002A02D13C43002C0BD0814214D0B0
:100A4000022001390840013800E00220C0BCB9464C
:100A5000B046F0BD0028F9D101204042F6E7002B56
:100A6000ECD14C462643E9D1EAE79A4204DD434201
:100A7000584140000138E9E79A42EBDB4F45DFD8A7
:100A800006D000204F45E1D20029E5D00800DDE77F
:100A9000C445D5D80020C445D8D2F5E7FF070000EB
:100AA00070B5002816D0C317C5185D40C40F2800C4
:100AB00000F026F8114A121A0A2816DC03002E004C
:100AC00015339E400B23181AC54052052D032D0BDC
:100AD000530D03E000240023002500261B052B43B3
:100AE000E40723433000190070BD0B3885405205E0
:100AF0002D0300262D0B530DF0E7C0461E04000009
:100B00001C2101231B04984201D3000C10391B0A3D
:100B1000984201D3000A08391B09984201D3000901
:100B2000043902A2105C40187047C0460403020258
:100B300001010101000000000000000084B0154B1D
:100B400059698020C003014359615A6902400192EA
:100B5000019A59698022D2021143596159691140A1
:100B600002910299596980200003014359615B6930
:100B700003400393039B084B1968084808408021F1
:100B80004902014319601968054801400A431A6087
:100B900004B070470010024000080048FFFFFCFF4F
:100BA000FFFFF3FF72B6FEE710B51248124B036069
:100BB000124B4360002383600122C26003614361E2
:100BC0008361C361036200F0AFFA00280CD10021F9
:100BD000084800F043FD002808D10021054800F036
:100BE00087FD002804D110BDFFF7DCFFFFF7DAFF17
:100BF000FFF7D8FF28000020005400400B0200003F
:100C000000B597B0302200210AA801F094FD10220F
:100C1000002106A801F08FFD1422002101A801F097
:100C20008AFD03230A93023B0B930D930F330E931C
:100C30000E3B129380235B0213930AA800F09CFDE5
:100C4000002817D107230693053B07930023089339
:100C50000993002106A801F0D9F800280CD120231F
:100C600001930023049301A801F0BCF9002805D1E9
:100C700017B000BDFFF796FFFFF794FFFFF792FF55
:100C8000D0B598B001F0AEFAFFF7BAFFFFF756FF04
:100C9000FFF78AFF234C210010313C22684601F007
:100CA00041FD20686168A268E36801F056FC0022FB
:100CB000002316921793149215931292139304E043
:100CC00080235B001C43184B5C61164C12AB1193E4
:100CD00014AB109316AB0F93210010313C226846E1
:100CE00001F020FD20686168A268E36801F082FCE1
:100CF0000D4B5C690D4B1C40169E179F0022002374
:100D000030003900FFF7B6FA0028D9D100220023BD
:100D100030003900FFF79AFA0028D4D080239B00D6
:100D20001C43D0E72800002000080048FFFCFFFF1C
:100D30007047FEE7FEE77047704710B501F062FAB2
:100D400010BD000082B00A4B9969012211439961DC
:100D500099690A400092009ADA69802149050A439C
:100D6000DA61DB690B400193019B02B07047C0461A
:100D70000010024010B588B004001422002103A81E
:100D800001F0D9FC2268124B9A4201D008B010BD84
:100D9000104C62698021C9020A43626163690B4099
:100DA0000193019BC0230393AE3B04930F3B069337
:100DB000023B079303A9084801F036FAE269802153
:100DC00089030A43E261E3690B400293029BDDE77A
:100DD00000540040001002400004004803689A6973
:100DE000920701D500229A6203689A69D20703D458
:100DF0009A6901210A439A6170470000F0B5C6461E
:100E000000B50400884617001E00069D03681F4AAF
:100E1000934206D01E4A934203D01E491E48FFF754
:100E200087FF80235B049E4205D080239B049E4263
:100E300001D0002E20D1194B9D4207D0184B9D4266
:100E400004D0184B9D4201D0002D1AD121684B6867
:100E50006A0D8020C0001040134A024393431800DB
:100E600043469C05A30D3F043B4333432B430343BD
:100E70004B6080BCB846F0BD0C490748FFF758FFEF
:100E8000D9E70B490448FFF753FFDFE70054004060
:100E900000580040CB190000A02700080040008047
:100EA0000024008000200080FF63FF03CC190000B5
:100EB000CD190000F8B505000F00160003689A6907
:100EC000D2063BD55A68920104D459688022D201D7
:100ED0000A435A602B689C69A20615D47B1CF9D082
:100EE00001F09CF9801BB84201D8002FF2D16B6C45
:100EF000202213436B644123EA5400232232AB5473
:100F0000023AAB5401201AE01022DA612B68202447
:100F1000DC612800FFF762FF2A68536808490B402C
:100F200053606B6C042213436B644123EC54002325
:100F30003E32AB54023AAB54012000E00020F8BD31
:100F400000E800FE70B504000D00160023689B69E0
:100F50009B071CD4320029002000FFF7ABFF0028BC
:100F600017D16B1CF2D001F059F9801BA84201D8AF
:100F7000002DEBD1636C2022134363644123E254C0
:100F800000232232A354023AA354012000E000209F
:100F900070BD0120FCE7F0B5C64600B507000D00A6
:100FA00090461E003B689C692C40641B63425C4178
:100FB000444516D1731CF5D001F030F9069BC01AD8
:100FC000B04201D8002EEDD17B6C202213437B640C
:100FD0004123FA5400232232BB54023ABB5401206D
:100FE00000E0002080BCB846F0BD000070B582B0C3
:100FF000040015001E008023F2B2194800905B0423
:101000002000FFF7FBFE079A06992000FFF79AFFE2
:1010100000281ED1012E0ED12368EDB29D62079BE0
:101020000093069B002280212000FFF7B4FF0028D8
:1010300013D102B070BD23682A0A9A62079A0699F2
:101040002000FFF77FFF002805D12368EDB29D62E5
:10105000E5E70120EDE70120EBE70120E9E7C046E5
:101060000020008070B582B0040015001E00DAB2C6
:10107000184B00930023FFF7C1FE079A0699200042
:10108000FFF760FF00281ED1012E0ED12368EDB2BC
:101090009D62079B0093069B002240212000FFF7E2
:1010A0007AFF002813D102B070BD23682A0A9A6221
:1010B000079A06992000FFF745FF002805D123680D
:1010C000EDB29D62E5E70120EDE70120EBE70120AD
:1010D000E9E7C0460020008070B505000C0016004E
:1010E0002B689B699B061AD4320021002800FFF769
:1010F000E1FE002815D101F091F8801BA04201D833
:10110000002CEDD16B6C202213436B644123EA5415
:1011100000232232AB54023AAB54012070BD0020B0
:10112000FCE70120FAE7000010B5041E00D1AEE094
:101130000368584A934206D0574A934203D057490E
:101140005748FFF7F5FD8023DB00A2689A4266D27C
:10115000E368013B012B68D82369002B03D0802270
:101160001202934266D16369FF2B68D8A369072BEB
:101170006AD8E369002B03D080221203934269D11D
:10118000236A002B03D080229202934267D141232D
:10119000E35C002B68D041232422E25422681368C8
:1011A00001218B43136022683E4B61680B40136141
:1011B000226893683C490B409360E368012B5AD046
:1011C000226884231B02A1680B439360E368022B0F
:1011D00058D022685168354B0B4353602268D3685E
:1011E00031490B40D360236962691343A26912023B
:1011F00021681343CB602268E369216A0B431360C3
:101200002268136801210B431360002363644122A9
:101210001F31A15423630132A354002010BD852146
:1012200089001F48FFF784FD92E721491C48FFF71A
:101230007FFD91E71F491A48FFF77AFD93E71E49A2
:101240001748FFF775FD91E7862189001448FFF7DD
:101250006FFD8EE719491248FFF76AFD90E71849BC
:101260000F48FFF765FD92E740330022E25420006B
:10127000FFF780FD8FE7226880231B02A1680B43E4
:101280009360A3E72368802212015A60A1E701203E
:10129000C4E7C0460054004000580040130200005C
:1012A000A0270008FFFFFFF0FF7FFFFF0080000284
:1012B00015020000160200001702000019020000CB
:1012C0001A020000F0B5CE4600B584B004000291C9
:1012D00003921F000AAB04CB91461D887B1E9BB274
:1012E000012B20D84123E35C202B00D0BAE04B46F1
:1012F000002B1DD0002D1BD04023E35C012B00D11F
:10130000B5E040230122E25400F088FF060080216E
:1013100000901923012209022000FFF73CFE00285B
:101320000BD001209FE056495648FFF701FDD9E751
:1013300080239B006364012095E041232122E25435
:1013400001331F32E254002363644A4662626585BA
:10135000636301960C9B00933B00039A0299200063
:10136000FFF744FE00280FD1638D9BB2FF2B10D9ED
:10137000FF2323857F3B002200925B04FF3202990A
:101380002000FFF73BFD21E040230022E254012032
:1013900069E0628D92B222858023D2B20021009151
:1013A0009B0402992000FFF729FD0FE0628D92B2A5
:1013B00022858023D2B2002100919B040299200053
:1013C000FFF71CFD638D9BB2002B34D032000C99CB
:1013D0002000FFF7B7FD00284BD12368626A12781E
:1013E0009A62636A01336362638D013B9BB26385DA
:1013F000238D013B9BB22385628D92B2002AE1D0FE
:10140000002BDFD100960C9B002280212000FFF7EB
:10141000C2FD00282FD1638D9BB2FF2BC6D9FF23BD
:1014200023857F3B002200925B04FF32029920005B
:10143000FFF7E4FCC6E732000C992000FFF74CFEF2
:1014400000281AD123682022DA6121684B680E4DEA
:101450002B404B604123E25400232232A354023A32
:10146000A35400E0022004B080BCB946F0BD0220C5
:10147000F9E70120F7E70120F5E70120F3E7C0468F
:1014800041090000A027000800E800FEF0B5CE46A4
:1014900000B584B00400029103921F000AAB04CB94
:1014A00091461D887B1E9BB2012B20D84123E35C13
:1014B000202B00D0BCE04B46002B1DD0002D1BD0B4
:1014C0004023E35C012B00D1B7E040230122E2542A
:1014D00000F0A4FE060080210090192301220902D9
:1014E0002000FFF758FD00280BD00120A1E057494C
:1014F0005748FFF71DFCD9E780239B006364012058
:1015000097E041232222E25401331E32E2540023A9
:1015100063644A4662626585636301960C9B00932F
:101520003B00039A02992000FFF79CFD00280FD191
:10153000638D9BB2FF2B10D9FF2323857F3B454A48
:1015400000925B04FF2202992000FFF757FC21E084
:1015500040230022E25401206BE0628D92B222858A
:101560008023D2B23B4900919B0402992000FFF7EF
:1015700045FC0FE0628D92B222858023D2B2002119
:1015800000919B0402992000FFF738FC638D9BB209
:10159000002B36D000960C9B002204212000FFF780
:1015A000FAFC00284BD123685B6A626A1370636A95
:1015B00001336362238D013B9BB22385618D013929
:1015C00089B26185628D92B2002ADFD0002BDDD115
:1015D00000960C9B002280212000FFF7DCFC0028F5
:1015E0002FD1638D9BB2FF2BC4D9FF2323857F3B73
:1015F000002200925B04FF3202992000FFF7FEFBFD
:10160000C4E732000C992000FFF766FD00281AD1CC
:1016100023682022DA6121684B680F4D2B404B6014
:101620004123E25400232232A354023AA35400E09F
:10163000022004B080BCB946F0BD0220F9E70120C9
:10164000F7E70120F5E70120F3E7C046CA090000EB
:10165000A02700080024008000E800FEF8B5040080
:101660000D0003681E4A934206D01E4A934203D0DF
:1016700064211D48FFF75CFB002D03D080235B0134
:101680009D4224D14123E35C202B25D12033E35C10
:10169000012B23D040200122225441262423A3558C
:1016A00021680B6893430B6021680B680F4F3B4028
:1016B0000B60236819680D431D6021680B68134394
:1016C0000B602023A355002323540020F8BD65217F
:1016D0000548FFF72DFBD5E70220F7E70220F5E7E5
:1016E0000054004000580040D8270008FFEFFFFFDB
:1016F000F8B504000D0003681B4A934206D01B4A4C
:10170000934203D092211A48FFF712FB0F2D22D8E3
:101710004123E35C202B23D12033E35C012B21D038
:1017200040200122225441262423A35521680B681E
:1017300093430B60236819680E4F39402D020D4307
:101740001D6021680B6813430B602023A355002301
:1017500023540020F8BD93210548FFF7E9FAD7E7A5
:101760000220F7E70220F5E700540040005800404F
:10177000D8270008FFF0FFFF70B582B0041E00D12B
:10178000E5E20368002B01D0DB0622D02368DB07EB
:1017900037D56368012B01D9052B20D1C04B5A687E
:1017A0000C231340042B24D0BD4B5A680C23134048
:1017B000082B1AD06368012B4FD0002B64D1B84B93
:1017C0001A68B8490A401A601A68B7490A401A608C
:1017D00049E03A21FF31B548FFF7AAFAD6E74021A0
:1017E000FF31B248FFF7A4FAD8E7AD4B5B68DB03E3
:1017F000E0D5AB4B1B689B0303D56368002B00D17E
:10180000A8E223689B0700D484E0E368012B61D839
:1018100023691F2B64D8A24B5B680C221A4269D043
:101820009F4B5A680C231340082B5FD0E368002BB2
:1018300000D194E09A4A136801210B43136000F031
:10184000EDFC0500964B1B689B077FD400F0E6FC7F
:10185000401B0228F6D903207AE2914A11688023BE
:101860005B020B4313606368002B25D000F0D6FCAD
:1018700005008B4B1B689B03C3D400F0CFFC401BBF
:101880006428F6D9032063E2052B09D0844B1A683B
:1018900084490A401A601A6883490A401A60E2E7DC
:1018A0007F4B19688022D2020A431A60196880228D
:1018B00052020A431A60D6E700F0B0FC0500784BEC
:1018C0001B689B039DD500F0A9FC401B6428F6D93A
:1018D00003203DE27421FF317448FFF729FA97E7AE
:1018E000BA2149007148FFF723FA94E76C4B5B6813
:1018F000DB039BD46A4B1B689B0703D5E368012B72
:1019000000D029E266490B68F82293432269D2008D
:1019100013430B6023681B074DD5E369012B31D8B6
:10192000E369002B34D05E4A536A01210B435362B2
:1019300000F074FC05005A4B5B6A9B073BD400F037
:101940006DFC401B0228F6D9032001E254490B68C4
:10195000F82293432269D20013430B60DAE7504A1E
:10196000136801218B43136000F058FC05004C4BB9
:101970001B689B07CED500F051FC401B0228F6D90E
:101980000320E5E1DA2149004848FFF7D1F9C7E72C
:10199000434A536A01218B43536200F03FFC050028
:1019A0003F4B5B6A9B0706D500F038FC401B0228C2
:1019B000F6D90320CCE123685B0700D48EE0A3684E
:1019C000012B01D9052B21D1354BDB69DB0023D459
:1019D000334AD169802040050143D161D369034076
:1019E0000193019B0125324B1B68DB0516D5A368CB
:1019F000012B27D0002B3CD1294B1A6A01218A43A5
:101A00001A621A6A03318A431A6220E0F0214900FF
:101A10002648FFF78DF9D7E70025E4E7244A116847
:101A200080235B000B43136000F0F8FB0600204BA3
:101A30001B68DB05DBD400F0F1FB801B6428F6D9C2
:101A4000032085E1164A136A01210B431362A36840
:101A5000002B31D000F0E2FB0600114B1B6A9B0704
:101A600039D400F0DBFB801B124B9842F5D90320E0
:101A70006EE1052B09D00A4B1A6A01218A431A62CA
:101A80001A6A03318A431A62E1E7054B1A6A042194
:101A90000A431A621A6A03390A431A62D7E7C04630
:101AA00000100240FFFFFEFFFFFFFBFF10280008B1
:101AB000007000408813000000F0B0FB0600AC4B43
:101AC0001B6A9B0707D500F0A9FB801BA94B984216
:101AD000F5D903203CE1012D00D18AE02368DB0623
:101AE0001CD56369012B02D9053300D087E0A369B7
:101AF0001F2B00D988E06369012B00D189E00533F1
:101B000000D0A6E09A4A536B04218B435363536B76
:101B1000F4318B43A169C9000B435363236A022B41
:101B200000D9AEE0236A002B00D117E1904A51683A
:101B30000C220A40082A00D1F1E0022B00D0D9E0A3
:101B4000636A002B04D080225202934200D09DE0B1
:101B5000A36A002B37D08022D202934233D0802256
:101B6000120393422FD0C022120393422BD0802223
:101B70005203934227D0A0225203934223D0C02283
:101B8000520393421FD0E022520393421BD0802283
:101B90009203934217D090229203934213D0A02233
:101BA000920393420FD0B022920393420BD0C022F3
:101BB0009203934207D0D0229203934203D0E022B3
:101BC0009203934267D1E36A0F2B6AD8684A13687D
:101BD00069490B40136000F021FB0500644B1B6852
:101BE0009B0163D500F01AFB401B0228F6D90320A5
:101BF000AEE05F4AD36961490B40D3616EE760494B
:101C00006048FFF795F872E75F495E48FFF790F884
:101C100071E7574B5A6B04210A435A635A6B0339D5
:101C20000A435A6300F0FAFA0500514B5B6B9B07BD
:101C300006D400F0F3FA401B0228F6D9032087E00F
:101C40004B494B6BF8229343A269D20013434B6379
:101C500064E7474B5A6B04210A435A635A6B0339B2
:101C60008A435A6300F0DAFA0500414B5B6B9B072D
:101C700000D453E700F0D2FA401B0228F5D9032024
:101C800066E042493F48FFF753F84BE740493D487B
:101C9000FFF74EF85CE7A92189003A48FFF748F8BA
:101CA00091E73C493748FFF743F88FE7304BDA6A52
:101CB0000F218A43E16A0A43DA625A6836490A40C8
:101CC000A16A606A01430A435A601968802252047B
:101CD0000A431A6000F0A2FA0400254B1B689B011E
:101CE00006D400F09BFA001B0228F6D903202FE04F
:101CF00000202DE01E4A13681F490B40136000F0BE
:101D00008DFA04001A4B1B689B0106D500F086FA79
:101D1000001B0228F6D903201AE0002018E0012B4E
:101D20001ED0134B5A68D96A80235B021340606A45
:101D3000834217D10F230B40E16A8B4214D1F02369
:101D40009B031A40A36A9A4210D1002000E00120B0
:101D500002B070BD0120FBE70120F9E70020F7E7A2
:101D60000120F5E70120F3E70120F1E70120EFE78B
:101D70000010024088130000FFFFFFFEFFFFFFEF8F
:101D80002602000010280008270200009A02000026
:101D9000A3020000A5020000FFFFC2FF10B588B03B
:101DA00004AA164B13CB13C21B6813606A46144B6C
:101DB00013CB13C21B681360124B5A680C231340D9
:101DC000082B02D0104808B010BD910C0733194001
:101DD00004A8445C0B49C96A0B406946C95CD3033B
:101DE00004D50948FEF790F96043ECE763011B1B3B
:101DF0009801C01AC00000190002E4E74828000852
:101E00005C2800080010024000127A0070B504003F
:101E10000D00002800D1C7E003685B0760D0012DEA
:101E200063D8654B1A6801231340AB420AD262495A
:101E30000B68012293432B430B600B681A40AA42A4
:101E400000D0B3E023689A0721D55B0705D55B4A2C
:101E50005168E023DB000B435360A368002B0FD0D5
:101E6000802B0DD0902B0BD0A02B09D0B02B07D0FE
:101E7000C02B05D0D02B03D0E02B01D0F02B39D1D3
:101E80004E4A5368F0218B43A1680B43536023688B
:101E9000DB0745D56368022B31D86368012B33D04B
:101EA000022B37D0454A1268920700D480E043499C
:101EB0004A680320824313434B6000F0AFF90600E9
:101EC0003E4B5B680C221A4063689B009A4227D005
:101ED00000F0A4F9801B3A4B9842F1D903205CE052
:101EE00038493948FEF724FF99E738493648FEF764
:101EF0001FFF96E736493448FEF71AFFC0E7354919
:101F00003148FEF715FFC8E72C4A12689203CED479
:101F1000012042E0294A12689201C8D401203CE025
:101F2000254B1A6801231340AB4209D922490B689B
:101F3000012293432B430B600B681A40AA4239D10C
:101F400023685B0719D5E368002B0FD08022D200ED
:101F500093420BD00132FF32934207D00132FF325D
:101F6000934203D00132FF32934217D1134A536890
:101F700019490B40E1680B435360FFF70FFF0F4B0C
:101F80005A6812090F231340144AD35CD840144BEB
:101F90001860032000F0FEF8002070BDE1218900E8
:101FA0000948FEF7C5FEE1E70120F6E70120F4E766
:101FB0000120F2E70120F0E700200240001002407B
:101FC0008813000016030000102800081703000003
:101FD000360300003D030000FFF8FFFF182900084A
:101FE0000800002070B582B00400624B02689A427B
:101FF00000D979E02368DB0348D56368002B0CD057
:1020000080225200934208D00132FF32934204D022
:102010000132FF32934200D06BE0574BDB69DB00AB
:1020200000D56BE0544AD169802040050143D1615D
:10203000D36903400193019B0125504B1B68DB05CD
:102040005ED54D4B1A6AC0239B00110019401A42FD
:1020500013D0626813408B420FD0474B186A484A2E
:1020600002401E6A8021490231431962196A454EB5
:10207000314019621A62C30757D43F4A136A404974
:102080000B4061680B431362012D5DD02368DB07B1
:1020900009D5A368032B5CD8374A136B03218B4304
:1020A000A1680B43136323689B060BD5E368002BE1
:1020B00001D0102B52D1304A136B10218B43E168B1
:1020C0000B43136323685B0552D52369002B01D0B2
:1020D000402B48D1284A136B40218B4321690B4385
:1020E0001363002002B070BD6E212748FEF720FE6A
:1020F00080E774212448FEF71BFE8EE700259CE74D
:102100001E4A116880235B000B43136000F086F8C1
:1021100006001A4B1B68DB0500D592E700F07EF83D
:10212000801B6428F5D90320DCE700F077F806006F
:10213000114B1B6A9B07A0D400F070F8801B134B57
:102140009842F5D90320CDE7D36911490B40D361FB
:102150009CE7BB210C48FEF7EBFD9DE7DF210A4819
:10216000FEF7E6FDA7E7F9210748FEF7E1FDB1E735
:102170000020B7E721040100001002400070004079
:10218000FFFCFFFFFFFFFEFF702800088813000020
:10219000FFFFFFEF10B504000F4B1978FA20800005
:1021A000FDF7B2FF01000D4B1868FDF7ADFF00F021
:1021B000B7F900280DD1032C01D901200AE0013024
:1021C00000222100404200F06FF9054B1C60002006
:1021D00000E0012010BDC0460000002008000020E3
:1021E0000400002010B5064A136810210B43136049
:1021F0000320FFF7CFFFFEF7A5FD002010BDC0466E
:1022000000200240034A1168034B1B785B181360DF
:102210007047C0467400002000000020014B186881
:102220007047C04674000020F0B5C64600B582B0C5
:1022300007000C009023DB0598420FD0924B984288
:102240000CD0924B984209D0914B984206D0914BBA
:10225000984203D0B0219048FEF76AFD23681A0423
:1022600001D01B0C03D0B1218B48FEF761FD6368E0
:10227000012B1FD9112B1DD0022B1BD0122B19D0D3
:1022800088225203934215D084229203934211D0A4
:10229000C422920393420DD090225203934209D05C
:1022A00088229203934205D0C8229203934201D020
:1022B000032B01D1002580E0B2217748FEF738FDDD
:1022C000F8E7E368012B01D9032B13D1BB68690040
:1022D00003228A4093431A00E3688B401343BB6098
:1022E0007A68B2436368190901230B40AB4013437A
:1022F0007B6074E0C2216848FEF71AFDE6E7D3214F
:102300006548FEF715FD72E09023DB059F4206D07D
:102310005D4B9F4203D0E0215F48FEF709FD236932
:10232000072B0FD8EA0808329200D15907232B4017
:102330009B000F20984081432069984003000B4385
:10234000D35164E0E1215448FEF7F2FCEAE70321AF
:1023500000E0002191400A00024302339B004F49F4
:102360005A504F4B1A684346DB43110040468143A5
:102370006068C00301D541461143494A1160526863
:10238000110019406068800301D541461143444A59
:1023900051609268110019406068C00201D5414641
:1023A00011433F4A9160D26813406168890201D5A8
:1023B000434613433A4AD360013523681A00EA4082
:1023C0005ED00126AE401A00324090463342F3D030
:1023D000032362681340013B012B00D871E70323FC
:1023E00062681340032B0CD0A368022B87D8FB68CC
:1023F000690003228A4093431A00A3688B40134369
:10240000FB60032362681340022B00D17CE73A682B
:1024100069000323180088408243606803408B40B2
:1024200013433B60C0239B0262681A42C4D01D4A1A
:102430009169012319439161926913400193019BB2
:10244000AB089A1C92001549505803222A4092006A
:102450000F21914088439021C9058F4200D178E730
:1024600009498F4208D009498F4207D008498F4255
:1024700000D16CE705216DE701216BE7022169E7D7
:1024800002B080BCB846F0BD000400480008004817
:10249000000C004800140048A82800080000014073
:1024A000000401400010024070B504000D00032933
:1024B00013D8002C16DBA308164EC0339B00995985
:1024C00003200440E400FF221000A0408143AD013E
:1024D0002A40A2400A439A5170BD8B210E48FEF754
:1024E00027FCE6E70F232340083B9B0806339B00AD
:1024F0000A4A944663445A6803200440E400FF21DA
:102500000800A0408243AD010D40A54015435D6029
:10251000E2E7C04600E100E0E028000800ED00E04E
:10252000013880235B0498420FD2094A5060094861
:10253000036A1B021B0AC02109060B430362002326
:10254000936007331360002070470120FCE7C0460A
:1025500010E000E000ED00E0704784B0F0B587B017
:102560000C900D910E920F93FA239B00029301237E
:10257000019317246C4400947522D0210CA8FEF717
:1025800085FF2378682B04D007B0F0BC08BC04B0EA
:10259000184716246C4400272770FA26B6000296C6
:1025A000012501950094673B6B22D0210CA8FEF712
:1025B00089FE07232370029601950094063B192299
:1025C000D0210CA8FEF77EFE27700296019500949C
:1025D00001231C22D0210CA8FEF774FE277002965E
:1025E0000195009401231B22D0210CA8FEF76AFE5E
:1025F000CAE7000084B030B587B00A900B910C9206
:102600000D9304AC00230493A380FA239B00029350
:10261000062301930094053B4322D0210AA8FEF72C
:1026200035FF2078000200B263781843A5782D02A8
:102630002DB2E3781D4323791B021BB264791C433E
:10264000FEF72EFA00220F4BFDF728FE1D9B1860A7
:1026500059602800FEF724FA00220A4BFDF71EFEFF
:102660001E9B186059602000FEF71AFA0022054BE5
:10267000FDF714FE1F9B1860596007B030BC08BC02
:1026800004B01847006060400D4885460D480E496B
:102690000E4A002302E0D458C4500433C4188C42BC
:1026A000F9D30B4A0B4C002301E013600432A24221
:1026B000FBD3FFF751FF00F011F8FEF7E1FAFEE758
:1026C00000200020000000200C000020302900081D
:1026D0000C00002078000020FEE7000070B5002606
:1026E0000C4D0D4C641BA410A64209D1002600F02D
:1026F0002BF80A4D0A4C641BA410A64205D170BDEC
:10270000B300EB5898470136EEE7B300EB58984713
:102710000136F2E72829000828290008282900089E
:102720002C290008002310B59A4200D110BDCC5CC2
:10273000C4540133F8E703008218934200D1704774
:1027400019700133F9E70000F8B5C046F8BC08BCC1
:102750009E467047F8B5C046F8BC08BC9E46704718
:102760007803000866030008440300086E030008AD
:102770004403000846060008440300086E030008EE
:102780006603000866030008460600086E0300089A
:10279000300300083003000830030008BC060008BE
:1027A000447269766572732F53544D3332463078D4
:1027B000785F48414C5F4472697665722F5372634B
:1027C0002F73746D3332663078785F68616C5F693F
:1027D00032632E6300000000447269766572732FC5
:1027E00053544D3332463078785F48414C5F4472E1
:1027F000697665722F5372632F73746D333266304E
:1028000078785F68616C5F6932635F65782E63001A
:10281000447269766572732F53544D333246307863
:10282000785F48414C5F4472697665722F537263DA
:102830002F73746D3332663078785F68616C5F72C5
:1028400063632E6300000000020304050607080905
:102850000A0B0C0D0E0F1010000000000102030403
:1028600005060708090A0B0C0D0E0F1000000000EA
:10287000447269766572732F53544D333246307803
:10288000785F48414C5F4472697665722F5372637A
:102890002F73746D3332663078785F68616C5F7265
:1028A00063635F65782E6300447269766572732F87
:1028B00053544D3332463078785F48414C5F447210
:1028C000697665722F5372632F73746D333266307D
:1028D00078785F68616C5F6770696F2E63000000D5
:1028E000447269766572732F53544D333246307893
:1028F000785F48414C5F4472697665722F5372630A
:102900002F73746D3332663078785F68616C5F6303
:102910006F727465782E63000000000000000000F4
:08292000010203040607080987
:04292800E9000008BA
:04292C00C1000008DE
:0C293000010000000400000000127A000A
:040000050800268940
:00000001FF
