:020000040800F2
:1000000000200020E54900082126000823260008DA
:1000100000000000000000000000000000000000E0
:10002000000000000000000000000000252600087D
:100030000000000000000000272600082926000814
:10004000354A0008354A0008354A0008354A000894
:10005000354A0008354A0008D5280008354A000806
:10006000354A0008354A0008354A0008354A000874
:10007000354A0008354A0008354A0008354A000864
:10008000354A0008354A000800000000354A0008DB
:10009000354A0008354A0008354A0008354A000844
:1000A000354A0008354A0008354A0008354A000834
:1000B000354A000800000000354A00080000000032
:1000C00010B5064C2378002B07D1054B002B02D02E
:1000D000044800E000BF0123237010BDA8000020E9
:1000E00000000000106C0008044B10B5002B03D07A
:1000F0000349044800E000BF10BDC04600000000F6
:10010000AC000020106C0008002243088B4274D31E
:1001100003098B425FD3030A8B4244D3030B8B4208
:1001200028D3030C8B420DD3FF22090212BA030C11
:100130008B4202D31212090265D0030B8B4219D3F2
:1001400000E0090AC30B8B4201D3CB03C01A524112
:10015000830B8B4201D38B03C01A5241430B8B425A
:1001600001D34B03C01A5241030B8B4201D30B0343
:10017000C01A5241C30A8B4201D3CB02C01A52416A
:10018000830A8B4201D38B02C01A5241430A8B422D
:1001900001D34B02C01A5241030A8B4201D30B0216
:1001A000C01A5241CDD2C3098B4201D3CB01C01A30
:1001B000524183098B4201D38B01C01A524143093A
:1001C0008B4201D34B01C01A524103098B4201D328
:1001D0000B01C01A5241C3088B4201D3CB00C01A95
:1001E000524183088B4201D38B00C01A524143080D
:1001F0008B4201D34B00C01A5241411A00D2014632
:10020000524110467047FFE701B5002000F0F0F8BA
:1002100002BDC0460029F7D076E7704703460B437E
:100220007FD4002243088B4274D303098B425FD3EF
:10023000030A8B4244D3030B8B4228D3030C8B421B
:100240000DD3FF22090212BA030C8B4202D3121201
:10025000090265D0030B8B4219D300E0090AC30BD6
:100260008B4201D3CB03C01A5241830B8B4201D383
:100270008B03C01A5241430B8B4201D34B03C01A6C
:100280005241030B8B4201D30B03C01A5241C30AE4
:100290008B4201D3CB02C01A5241830A8B4201D355
:1002A0008B02C01A5241430A8B4201D34B02C01A3F
:1002B0005241030A8B4201D30B02C01A5241CDD2E4
:1002C000C3098B4201D3CB01C01A524183098B422F
:1002D00001D38B01C01A524143098B4201D34B0118
:1002E000C01A524103098B4201D30B01C01A52417B
:1002F000C3088B4201D3CB00C01A524183088B4202
:1003000001D38B00C01A524143088B4201D34B00EA
:10031000C01A5241411A00D201465241104670475C
:100320005DE0CA0F00D04942031000D34042534061
:1003300000229C4603098B422DD3030A8B4212D321
:10034000FC22890112BA030A8B420CD38901921153
:100350008B4208D3890192118B4204D389013AD090
:10036000921100E08909C3098B4201D3CB01C01A65
:10037000524183098B4201D38B01C01A5241430978
:100380008B4201D34B01C01A524103098B4201D366
:100390000B01C01A5241C3088B4201D3CB00C01AD3
:1003A000524183088B4201D38B00C01A5241D9D2EB
:1003B00043088B4201D34B00C01A5241411A00D26C
:1003C0000146634652415B10104601D34042002B68
:1003D00000D54942704763465B1000D3404201B5E7
:1003E000002000F005F802BD0029F8D016E770479C
:1003F0007047C0468446100062468C46190063462A
:1004000000E0C0461FB501F02DF8002801D40021FE
:10041000C8421FBD10B500F07DFF4042013010BD45
:1004200010B501F01FF8002801DB002010BD0120ED
:1004300010BDC04610B501F015F8002801DD002000
:1004400010BD012010BDC04610B500F0A5FF00286A
:1004500001DC002010BD012010BDC04610B500F029
:100460009BFF002801DA002010BD012010BDC0460E
:10047000002B11D1002A0FD1002900D1002802D071
:100480000021C943080007B4024802A140180290A5
:1004900003BDC0465DFFFFFF03B4684601B5029887
:1004A00000F03AF8019B9E4602B00CBC7047C04673
:1004B00070B500220C4B04000D00FFF7CFFF0028A1
:1004C00004D12000290001F04DFE70BD064B002232
:1004D0002000290001F096FA01F044FE80231B065B
:1004E0009C466044F1E7C0460000E04170B506005C
:1004F000080001F09DFE0022064B01F017F80D00E8
:100500000400300001F094FE2B00220000F0D0F82F
:1005100070BDC0460000F041F0B557464E46454616
:10052000DE46E0B504000D009246994683B08B424A
:1005300030D82DD04946504601F0BEFE29000600B5
:10054000200001F0B9FE331A9846203B9B4633D475
:100550005A465346934042461F00534693401E005E
:10056000AF423AD8AF4200D178E05B46A41BBD4110
:10057000002B00DA75E00022002300920193012392
:100580005A4693400193012342469340009328E04A
:100590008242CFD900220023009201930C9B002BB2
:1005A00001D01C605D600098019903B0F0BCBB46AF
:1005B000B246A946A046F0BD424620239B1A5246A9
:1005C000DA40414613004A468A40170042461F431C
:1005D000534693401E00AF42C4D90022002300922C
:1005E00001934346002BD9D0FB0772081A434646B5
:1005F0007B080EE0AB4201D1A2420CD8A41A9D4167
:10060000012024196D410021013E24184D41002E86
:1006100006D0AB42EED9013E24196D41002EF8D12F
:10062000009801995B4600196941002B24DB2B00DF
:100630005A464446D3402A00E2401C005B4615005F
:10064000002B2ADB26009E40330026004746BE4092
:100650003200801A9941009001919FE7A342BCD8D3
:1006600083E74246202300219B1A00220091019239
:100670000122DA40019286E7424620239B1A2A0093
:1006800046469A402300F340444613432A00E24082
:100690001C005B461500002BD4DA42462F002023B5
:1006A000260097409B1ADE403B003343CDE7C0460F
:1006B000F0B54F464646D6460D000400C0B51F00B3
:1006C00011002803620F400A10437A00520DE30024
:1006D0003C039146640AFA0F4F0F6E00274392467F
:1006E000B846760DED0FC900954200D199E04C4611
:1006F000341BA446002C00DC7CE04A46002A00D1D2
:10070000B8E0C54A964200D11CE180223C001204A8
:100710001443A0466246382A00DD61E11F2A00DD4D
:10072000CCE164462022121B444694400F00A146AF
:1007300064469140E7404C464A1E91413C43424644
:1007400021436446E240801A5C1AA3429B415F4207
:10075000C71B3B0200D4D0E07F027F0A002F00D1EC
:10076000FFE0380001F08AFD010008392023220053
:100770005B1A8F40DA408C401743B14200DAFFE049
:10078000891B4B1C1F2B00DDA8E020223900D21A48
:10079000200094409140D840621E9441DF400026E2
:1007A00001430C43630709D00F232340042B05D0DA
:1007B000231DA342A44164423F191C003B0200D404
:1007C0009EE0954B01369E4200D1B7E0934AE40883
:1007D00017407B0771057F0223433F0B4A0D12052B
:1007E0003A43ED072A4318001100E0BCBA46B1466F
:1007F000A846F0BD002C4BD04C46A41BA446002EAE
:1008000000D023E104001C4300D1AFE16246541E36
:10081000012A00D115E2804DAC4500D1C8E1A446C3
:100820001BE14A46B21A9446002A00DCACE04A4674
:10083000002A43D0784A964200D1AFE180223C00A2
:1008400012041443A0466246382A67DC1F2A00DCE3
:100850005FE14746203AD7406246202A05D06446E9
:100860004022121B4446944021434A1E91410C00F1
:100870003C4357E03A000A4300D105E12200013A27
:10088000012C00D182E1644CA4455BD0944641E741
:10089000634C771C274200D0C4E004001C43002EA8
:1008A00000D069E1002C00D1BFE144460C4300D0E8
:1008B000D0E14207DB081343C00829E03A000A43AD
:1008C00000D170E162466446013A012C00D1E0E0BB
:1008D000514CA44500D161E19446B4E73A001F3978
:1008E000CA401100202B03D04022D31A9F403C4322
:1008F000631E9C41002700260C43630700D053E78A
:10090000B446E4087B072343F808434A94451DD0C6
:100910006246070352053F0B520D60E744460C4305
:10092000621E9441E4189C429B415F423F183B0287
:10093000E3D5394B01369E4200D0B5E032000027A6
:1009400000234CE74207DB081343C0081A000243A8
:1009500000D1E1E180273F0307433F032E4A3F0BCD
:100960003DE7200001F08AFC010018311F2900DC5E
:10097000FCE60838844027000024B14200DBFFE693
:10098000264A761A17400DE7002A2FD04A46921BB6
:100990009446002E00D1ADE01F4A914500D10FE1F1
:1009A0008022120410436246382A00DD0FE11F2A1C
:1009B00000DD80E1644620221E00121B6746040011
:1009C00093409440FE405A1E9341F84034431C43E8
:1009D000804464188C42BF417F424E464744A6E79C
:1009E00042460A4311004A1E9141ADE60C4C721C6E
:1009F000224200D0A1E002001A43002E00D0FAE00B
:100A0000002A00D145E13A000A4300D046E14207FE
:100A1000DB081343C0087BE7FF070000FFFF7FFFF1
:100A2000FE07000047465C1AC21BA342BF417F423B
:100A3000B94617004A46BF1A3A0200D58DE0230096
:100A40003B4300D08AE60020002561E7B44CA14575
:100A500000D1ADE08024240420436446382C3DDCE2
:100A600062461F2C00DDB7E020251E002D1B040070
:100A7000AB40AC40D640D04042465D1EAB41344313
:100A8000121A904623432CE04207DB081343C008A8
:100A90003BE75C189C429B4140445B42C7180126DF
:100AA0003B0200D429E702269E4A63081740012230
:100AB00014401C43FB071C437F0873E64446203A5E
:100AC000D4406246202A05D067464022D21B4746C2
:100AD000974039434A1E9141214335E60343581E4E
:100AE0008341CC1AA142BF4143467F4255464E4600
:100AF000DF1B2EE602001A4300D1BDE062466446C9
:100B0000013A012C00D1E5E0854CA44558D094462B
:100B100049E764462022121B444694400F00A14638
:100B200064469140E7404C464A1E91413C43424650
:100B30000C436146CA408018F4E6794CA24200D1C9
:100B4000FDE6591899429B4140445F42C719FC0792
:100B5000490816000C437F08CFE6CC1AA142BF41DA
:100B600043467F42181A5546C71BF7E5C9087B075D
:100B700055460B43F808C8E6002C00D081E04346F8
:100B80000B4315D1802000250003E3E65C1AA34245
:100B90009B41C71B5B420126FF1ADAE54207DB08CF
:100BA0001343C008D2E64207DB081343C008ACE693
:100BB00043464246C9085B0755460B43D008C5E685
:100BC000434642465B07C9080B43D008BEE60343D1
:100BD0001C00631E9C41FCE60200203CE240140025
:100BE0006246202A03D04025AD1AA8400343581E70
:100BF0008341234375E7002AE2D03A000A43CDD06F
:100C00004207DB0813438022C0081203104206D0BB
:100C1000FC08144203D12000CB087A0713435A0F73
:100C2000DB005207DB08134390E643460B4300D139
:100C300009E743464246C9085B0755460B43D008BF
:100C400066E6CC1AA14289413F1A4942554601261F
:100C50007F1A7EE542465C1A871AA34292415242AD
:100C6000BF1A3A023DD5CC1AA142894143464942B6
:100C70001F1A55467F1A95E57B07C9080B43F808EC
:100C800043E64446DB080C4330D142071343C00817
:100C90005CE67B07C9080B43F80839E65C189C4200
:100CA0009B4140445B42C7183B0200D425E61D4BE4
:100CB00001261F4021E60400203AD4406246202A43
:100CC00004D040226646921B904003435A1E934133
:100CD0001C437EE65C188C428941404449424718D7
:100CE000DDE623003B4300D1ADE606E6440723439F
:100CF0008024C0082403204208D04246D608264259
:100D000004D155463000CB0851070B435A0FDB0086
:100D1000DB085207134319E60023014A1F005EE572
:100D2000FF070000FFFF7FFFF0B557464E464546E0
:100D3000DE46E0B5814605000C03480092461F00E0
:100D400085B0240B400DCE0F002800D156E1D44BC6
:100D5000984200D172E16B0FE4001C4380231B0416
:100D600023439846CF4BED009B460023994683448E
:100D700000933C037B005046240B5B0DFF0F002BC0
:100D800000D11FE1C64A934200D162E1C549420F3A
:100D90008C46E40059461443802263441204CB1A63
:100DA00014439B46C200002033007B409A464B46CA
:100DB0000F2B27D8BC499B00CB589F46B246009BBF
:100DC000022B16D0032B00D18EE2012B00D0D9E0EC
:100DD00000230024002552461B052343D20713435A
:100DE0002800190005B0F0BCBB46B246A946A04693
:100DF000F0BD00240025AA4BEDE7BA46A046150039
:100E00000090DCE7444500D2C7E100D1C2E10123F4
:100E10005B429C462E0040460025E3442302140E0C
:100E20001C431B0C994623041F0C120249460092D6
:100E30000197FFF7EFF902007A430B04310C80466B
:100E400019438A4207D901235B429C460919E044B1
:100E50008C4200D807E2881A4946FFF7DBF90904FB
:100E60008C4631046646019A090C42430300314323
:100E70008A4204D90919013B8C4200D8EDE1881A55
:100E8000424612041A4390464146009B0E041B0C36
:100E90001F000293009B360C1B04190C0B007343BC
:100EA000120C7E43039151437A431F0CBC467618C3
:100EB0006644B14203D9802149028C466244310C18
:100EC0008A1831041E04360C8E19904202D312D1B6
:100ED000B54210D24346591E009B9C4665441F00F4
:100EE0009D429B415B421B19C018844200D2A0E185
:100EF00000D19BE18846AE1BB542AD41801A6D42E0
:100F0000401B844200D1D5E14946FFF783F9019A9D
:100F10000B044243310C050019438A4200D96CE1AD
:100F2000881A4946FFF776F9019A360442430904C4
:100F3000360C03000E43B24200D953E10398B61AAF
:100F400002002D041D43029F2B041B0C5A437B43BC
:100F50009C46290C4843130C8444634479439842CB
:100F600003D98020400284466144180C12041B04FB
:100F7000120C41189B188E4200D2FFE000D1FAE01B
:100F800001231D43494A5A44002A00DCAAE06B07AA
:100F900000D03DE1ED084346DB0106D54246444B17
:100FA0001A4090468022D2005A44424B9A4200DDB9
:100FB0001FE743465B071D43434652055C02240B73
:100FC000530D08E75246224300D17BE0002C00D1AC
:100FD000FAE0200001F052F902000B3A1D23010053
:100FE0009B1A52460839DA408C40144352468A40D4
:100FF000314B58449B4683440020D5E64B4623435F
:10100000984644D0002C00D1CEE0200001F036F903
:10101000010002000B391D235B1A49461000D9401C
:10102000083884400B004D462343984685402348AA
:10103000831A9B460023994600939AE64B46234326
:1010400098461DD108239946063B00258346009308
:101050008FE65246224309D1022349461943184BD1
:1010600089469C4600240220E3449DE603234A4629
:101070001A43134B91469C4652460320E34493E6A1
:101080000C239946093BA0468346009371E604234E
:10109000994600239B4601330025009369E6C0462C
:1010A000FF07000001FCFFFF286C0008FF030000A1
:1010B000FFFFFFFEFE070000F30300000DFCFFFF33
:1010C00001F8FFFF49460123194389460024012006
:1010D0006AE6002380249A4600258A4B24037AE698
:1010E00001256D4201239B1A382B00DD70E61F2B72
:1010F00000DCBFE01F2149428A1A4146D1400A0064
:10110000202B04D04146804B5B4499400D436B1E1D
:101110009D4107232A431D0000241540134200D19E
:10112000D4E00F2100231140042900D1CBE0111D90
:101130009142924152429B180A00190200D4C2E027
:1011400001230024002546E6802341461B03194263
:1011500008D01C4206D11C432403BA461500694B33
:10116000240B38E68024434624031C432403B24660
:10117000644B240B2FE6002B00D103E7A619681E51
:10118000A64200D28DE08E4200D2A3E000D1B3E0AF
:101190000500F5E6AA4200D939E64346DE075808BD
:1011A0006B081E43ED0739E6484601F067F8010079
:1011B0000200153120321C2900DC2CE74B46083890
:1011C00083400025984632E701F058F803001A00E2
:1011D000153220301C2A00DC00E75446083B002270
:1011E0009C4005E73619013BB44200D9A6E6B2425D
:1011F00000D8A3E6831E3619A0E60919013D8C42EA
:1012000000D98DE68A4200D88AE6851E091987E64C
:101210000F232B40042B00D1BCE605235B42AB42DD
:101220009B4104355B42ED089844B4E6AF4200D9D7
:1012300060E6824204D800D05CE6AE4200D859E6AF
:1012400002235B429C46009BE0449C4665449D42D1
:101250009B415B421B19C0184DE68A4200D80EE63E
:10126000831E09190BE68A4200D8F4E5831E9846CE
:101270000919F0E52549280059448D4042468A4025
:10128000691E8D414146D840D94002432A430B0094
:10129000510700D151E70F211140042900D046E742
:1012A0004BE705008E4200D06AE6009A934200D0D8
:1012B00066E667E6164A5A44002A00DC10E7012376
:1012C0000025984467E65D075B021C0BD2080023EB
:1012D000154380E50098023D42008242BF417F42B3
:1012E0003C1936190092DDE78024434624031C4351
:1012F0002403044B240B6EE5009A9A42EAD30500BE
:10130000D3E7C046FF0700003E0400001E040000B3
:10131000FF030000F0B54E464546DE465746904670
:10132000E0B517001A03120B0500844619480E0396
:101330004C0091465A00DB0F9B46360B640DC90FDB
:10134000520D844219D0824210D0012094420ED115
:101350004E450CD10120C44509D1594517D0002C68
:1013600005D130002843431E984100E00120F0BC25
:10137000BB46B246A946A046F0BD330001202B4330
:10138000F5D1A242F3D14B463B43F0D1E2E7002036
:10139000EDE7C046FF070000F0B54746CE46040023
:1013A000180016001B031B0B2D4D4A00994680B5F3
:1013B00043000F03A446B0463F0B520DC90F5B0D0F
:1013C000C00FAA4221D0AB4213D0002A22D13C4305
:1013D000002B02D14D462E4322D0002C10D081424A
:1013E00022D00220013908400138C0BCB946B046BD
:1013F000F0BD4D462E4329D1002AF0D13C43EED119
:101400000028F2D101204042EFE73D0025431DD1E5
:101410009342EED0002BE2D14C462643DFD1E0E7E9
:101420000020002CE1D0DCE79A420ADCE8DB4F45E3
:10143000D7D80ED000204F45D7D20029E2D00800DF
:10144000D3E74342584140000138CEE702204042F2
:10145000CBE7C445C5D80020C445C6D2EDE7C04699
:10146000FF070000F0B54746CE46040018001600FE
:101470001B031B0B2C4D4A00994680B543000F03FC
:10148000A446B0463F0B520DC90F5B0DC00FAA42D8
:101490000DD0AB4210D0002A27D13C43002B11D1F4
:1014A0004D462E430ED10020002C15D00EE03D00FD
:1014B000254310D1934218D14D462E430BD1002A1B
:1014C00002D13C43002C0BD0814214D002200139C0
:1014D0000840013800E00220C0BCB946B046F0BD6B
:1014E0000028F9D101204042F6E7002BECD14C4610
:1014F0002643E9D1EAE79A4204DD434258414000DD
:101500000138E9E79A42EBDB4F45DFD806D00020EF
:101510004F45E1D20029E5D00800DDE7C445D5D824
:101520000020C445D8D2F5E7FF070000F0B55746C4
:101530004E464546DE46E0B598460C034B00060095
:10154000924687B0240B5B0DCF0F002B00D15CE1DE
:10155000D94A934200D175E1420FE400144380223E
:1015600012041443D54AC5009446634400930023F3
:1015700099469B46434642461E03D20F5B005046A7
:101580009046360B5B0D00D120E1CB4A934200D14F
:1015900062E1CA49420F8C4600996344F6008C46CA
:1015A000164380229C44120463461643C200002066
:1015B00000930099434601318C4649467B40019394
:1015C0000F2926D8BE4B890059588F4643460193B0
:1015D0003400150083465B46022B16D0032B00D146
:1015E00003E2012B00D0CDE0002200240025019B66
:1015F00012052243DB071A432800110007B0F0BC94
:10160000BB46B246A946A046F0BD00240025AA4A22
:10161000EDE7280C2D042D0C2B00110C1204120CDC
:101620005343984613002F00434399464F434F447A
:10163000BB4647460B003F0CBA464343DA4402938D
:10164000D14504D980277F02B9464B4402935346C3
:101650001B0C9B4653461F0443461B041B0C984619
:101660003B0043440493330C3604360C9846330055
:1016700043439946434643432F009A4643467743A4
:101680005D43380C4D444519A94503D980235B02BD
:101690009946CA443F04280C3F0C2D04ED19270C31
:1016A0002404240C0300200050437A4391463A005E
:1016B00053440593030C9A464A43614349445144B9
:1016C000AB44894503D980235B0299464A44000410
:1016D0000B0C000C0904091820009946434670437E
:1016E0005C437E435F43030C9846A41944444A4438
:1016F0000397A64204D980235B0298464744039788
:101700002304029E9A46059B5E449846AE42AD4134
:1017100076188E4289410004000C504440446D42CA
:101720004719B846934649428946C344D94498422A
:101730008041A845AD4193459241894589416D421B
:1017400040422843240C524249420A43039B001959
:101750008018C7184B46DC0D049B75021D436A1E9A
:1017600095414B46F60D7F0235435A023C431543E3
:10177000FB0100D41CE101216A080D401543E2077A
:10178000154364084F496144002900DCB0E06B0751
:1017900009D00F222A40042A05D02A1DAA42AD41B1
:1017A0006D4264191500E30104D58021464AC90041
:1017B00014406144454A914200DD26E76207ED0886
:1017C000640249051543240B4A0D10E75246324383
:1017D00000D17FE0002E00D1DCE0300000F04EFDB3
:1017E00002000B3A1D2301009B1A52460839DA40C9
:1017F0008E40164352468A40009B3549181A030012
:101800008C46634400200093D3E6250005434AD06C
:10181000002C00D1B0E0200000F030FD01000200FB
:101820000B391D2310005B1A310035000838844045
:10183000D94085400C432648831A009300239946DB
:101840009B4697E60500254326D1082200930223F4
:10185000002491469B468DE65246009B324310D1B0
:10186000154900268C4663444946009302231943D8
:10187000894602209DE65B460197022B00D0ADE62B
:10188000C3E60D4A0320944663444A46009303236B
:101890001A43914652468CE60C220093032305001E
:1018A00091469B4666E60423994600230093013344
:1018B00000249B465EE6C046FF07000001FCFFFFD8
:1018C000686C0008FF030000FFFFFFFEFE0700003A
:1018D0000DFCFFFF494601231943894600260120DC
:1018E00067E6002380240025434A019324037EE613
:1018F0000120401A382800DD76E61F285BDD1F2214
:1019000023005242511ACB401900202803D03B4AF1
:101910006244944025436A1E95412A000A430721E8
:101920000D000024154011425BD00F21002411400E
:10193000042953D0111D914292415242A4180A0029
:1019400023024BD501220024002550E680231B03EF
:101950001C4209D01E4207D133431C0343461500E5
:10196000240B254A019342E68022120314432403E8
:10197000214A240B01973AE600F080FC01000200A6
:10198000153120321C2900DC4BE7340008380025D3
:10199000844050E700F072FC03001A00153220303A
:1019A0001C2A00DC1EE75646083B00229E4023E727
:1019B000009B9C46E6E61249220061442E008D40C1
:1019C0008A40C640691E8D4132432A43C4405307B2
:1019D000B6D00F2111400429ACD1B1E765076402EC
:1019E000240BD2081543002201E68022120314437F
:1019F0002403014A240BFAE5FF0700003E0400001F
:101A00001E040000F8B557464E464546DE46E0B592
:101A10001E0017004A000B03520D5B0A9046420F4E
:101A20001A43CD0FCD4C3103C300944670007A0F9A
:101A3000490AFF009A46B946400DF60F1143A042ED
:101A400000D1B1E001225640B346B54200D188E052
:101A50004246121A002A00DCAEE0002800D1C1E0A4
:101A6000BE48804500D151E1802000040143382A5E
:101A700000DD7BE11F2A00DDEEE120203E00801A20
:101A80000C00D640D140874062468440521A781EEE
:101A90008741944634432743DC1BA3429B41624663
:101AA0005B42D31A99464B461B0200D418E14B46C1
:101AB0005802430A99464B46002B00D137E148466D
:101AC00000F0DCFB010008392023220048465B1AA5
:101AD000DA4088408C4043461043884500DD36E1BB
:101AE000C91A4B1C1F2B00DDEAE020222600D21A67
:101AF00001009440DE40D84000239140621E944192
:101B00008146984631430C43630709D00F23234095
:101B1000042B05D0231DA342A4416442A1441C0010
:101B20004B461B0200D4DEE041468C4B013199420A
:101B300000D1E7E04B468A48E40803401800490515
:101B40005B07400223434A0D040B1205ED072243B5
:101B50002A4318001100F0BCBB46B246A946A04675
:101B6000F8BD4246121A002A52DD002800D19CE03E
:101B7000A04500D1CAE0802000040143382A00DDDE
:101B800049E11F2A00DC97E110000E002038C64012
:101B9000202A04D04020821A91400F43B9464C4677
:101BA000621E944134433AE10A003A4328D0B346D6
:101BB000B5422BD06B4A4244002A5DD0424644468F
:101BC000821A002C00D0F5E065461D4300D19CE14F
:101BD000551E012A00D1FBE1604CA24200D1BDE1BB
:101BE0002A00F0E00800384300D1C3E0501E012A6B
:101BF00000D1A8E1594CA24200D187E0020036E7AB
:101C000001225640B346B54200D021E7554A42442E
:101C1000002A00D1B5E042464446821A002C00D189
:101C200038E14E4EB04200D1DEE1802664463604F3
:101C30003443A446382A00DD96E11F2A00DD24E261
:101C40002026B41AA24664465646B440A1461C005B
:101C50004E46D440264334005646B3405E1EB34140
:101C60001C436346D340C918E419BC42BF417F42BC
:101C7000B94680468944D8E040463B4C013020427A
:101C800000D0B4E04046002800D044E1604618434C
:101C900000D190E10800384300D0AAE16146DB089A
:101CA00049070B436146CC0827E00800384361D060
:101CB000501E012A00D139E1A24227D002005DE77F
:101CC00002001F39CA401100202B03D04022D31A32
:101CD00098400443631E9C410023994698460C4358
:101CE000630700D012E74B464A46E4085B072343EC
:101CF000D408424619498A420ED024035205240BC7
:101D0000520D22E70A00002400231EE7DB0862468A
:101D1000520713436246D4081A00224300D1FCE163
:101D200080221203144324030C4A240B0DE72000E5
:101D300000F0A4FA010018311F2900DCC4E60838BD
:101D40008440434620000024884500DCC8E6044A5D
:101D50005B1A104098468146D6E6C046FF07000051
:101D6000FFFF7FFF01F8FFFFFE0700000F437A1E11
:101D7000974191E66146DB0849070B436146CC0871
:101D8000B8E74046D34C0130204200D0A2E04046A4
:101D9000002800D001E16046184300D15EE1080050
:101DA000384300D05FE16146DB0849070B436146D9
:101DB000CC08A2E7C84DA84200D1CFE080256446F8
:101DC0002D042C43A446382A56DC1F2A00DDD1E01E
:101DD00020251E00AD1A6446AB40AC40D6405D1EC7
:101DE000AB41344323436446D440091B49E0604679
:101DF000DC1B461AA34280414042814630004E46D9
:101E0000801B8146000276D44B46234300D052E625
:101E10000024002571E739430C00621E9441E41848
:101E20009C429B415B42634499464B461B0200D453
:101E300056E701239C46A84BE044984538D04B46D2
:101E4000A648012203401800630814401C43C3073E
:101E50001C434308994657E610000E002038C64040
:101E6000202A04D04020821A91400F43B9464F46A1
:101E70007A1E974137430FE662461A4313005A1EF3
:101E80009341FC1AA742BF417F42CB1B99465D4656
:101E9000804608E666461E4300D1BEE0561E012A73
:101EA00000D109E18C4CA24200D119E13200C1E617
:101EB00042460024002348E620200C00801A3E0001
:101EC00087408440D640781E8741D14034433C430C
:101ED0008C44A4E7804A904200D1E9E0DF199F4298
:101EE0009B4161445B42C918CC077F084B08994667
:101EF00080463C43F4E6FC1AA742BF4163467F425A
:101F0000C91ACB1B99465D46D5E5FF084B075D46D0
:101F10003B43CC08EEE662461A4300D082E00B0059
:101F20003B431BD1802400252403F9E6DC199C42A5
:101F30009B41614489465B4299444B461B0244D411
:101F400001239846CCE6DC1B6246A3429B41511A12
:101F50005B42CB1A994601239846A4E5FF084B073C
:101F60005D463B43CC08D7E662461A431400631E25
:101F70009C4179E615006446203DEC40A046202AAD
:101F800005D040256446AA1A944023439A465446F5
:101F9000631E9C414346234373E762461A4323D0A2
:101FA0000A003A4300D0A0E06246DB085207134320
:101FB0006246D408B0E60B003B4300D128E7FF0897
:101FC0004B075D463B43CC0897E60223984636E72D
:101FD000FC1AA742BF4163467F42C91ACB1B9946F0
:101FE00001235D4698465EE54B07FF083B43CC085E
:101FF00092E6DC1B6046A342B641401A7642801B43
:102000008146000260D5FC1AA742BF4163467F4269
:10201000C91ACB1B99465D4676E5FF084B073B4343
:10202000CC0867E60A00DB083A4300D16FE6624657
:10203000520713436246D40880221203144207D089
:10204000C808104204D15D460400FB0849070B4351
:102050005A0FDB00DB08520713435DE64B07FF080E
:102060003B43CC0849E6DC199C429B4161448946CC
:102070005B4299444B461B0200D431E64A46174B5B
:102080001A400123914698462AE616006446203EEF
:10209000F440A046202A05D040266446B21A944057
:1020A00023439A465446631E9C4143461C43DBE54A
:1020B00002000024002348E5DC19BC42BF41614412
:1020C00089467F42B94438E74B46234300D19FE617
:1020D00006E6C046FE070000FF070000FFFF7FFF87
:1020E000FF084B073B43CC0816E66246DB08520765
:1020F00013436246D40880221203144207D0C80852
:10210000104204D15D460400FB0849070B435A0FF7
:10211000DB005207DB081343FEE50023014A1C00E5
:1021200013E5C046FF07000070B505000C481C030E
:1021300016005B000A034900120B490D240B5B0DCE
:10214000814208D0064A0020934203D12000304348
:10215000431E984170BD01202A43FBD1F2E7C046DF
:10216000FF0700000A0030B5134C530009030500B7
:10217000090B00205B0DD20FA34204DD0F48834200
:1021800002DD0F4BD01830BD8020400301430D48C5
:10219000C01A1F2808DD0C48C31AD9400B0058424A
:1021A000002AF0D11800EEE7084CC540A44663446D
:1021B00099400B002B43F2E7FE0300001D040000D2
:1021C000FFFFFF7F3304000013040000EDFBFFFF5F
:1021D00070B5002816D0C317C5185D40C40F28007D
:1021E00000F04CF8114A121A0A2816DC03002E00DF
:1021F00015339E400B23181AC54052052D032D0B95
:10220000530D03E000240023002500261B052B436B
:10221000E40723433000190070BD0B388540520598
:102220002D0300262D0B530DF0E7C0461E040000C1
:1022300010B5041E10D000F021F80F4B1B1A0A280D
:1022400011DC0B222100121AD14015300A035B0564
:102250008440120B5B0D01E0002300221B05134399
:102260002000190010BD22000B3882405B051203CC
:102270000024120B5B0DF1E71E0400001C2101235A
:102280001B04984201D3000C10391B0A984201D359
:10229000000A08391B09984201D30009043902A237
:1022A000105C40187047C04604030202010101019E
:1022B000000000000000000010B5002903D1FFF766
:1022C000DDFF203002E00800FFF7D8FF10BDC04658
:1022D00000B589B01422002103A802F0DAFB194BE3
:1022E00059698020C003014359615A690240009234
:1022F000009A596980208002014359615A6902405D
:102300000192019A5A698021C9020A435A615B69A4
:102310000B400293029B0823039384239B030493A3
:1023200001230593902003A9C00501F057FB00226B
:102330000021062001F028FC062001F055FC09B020
:1023400000BDC0460010024072B6FEE710B512484C
:10235000124B0360124B4360002383600122C26072
:10236000036143618361C361036200F0D5FC00280F
:102370000CD10021084800F0D9FE002808D1002126
:10238000054800F0FFFE002804D110BDFFF7DCFF78
:10239000FFF7DAFFFFF7D8FFD40000200054004019
:1023A0000B02000000B593B00822002110A802F033
:1023B00070FB1C22002109A802F06BFB20220021E7
:1023C00001A802F066FB2348234B036030234360DF
:1023D00000238360FA229200C2600361436183613B
:1023E00001F042FD00282CD100231093119310A975
:1023F000184801F0ADFE002825D160230993002381
:102400000A930B930D930E930F930C2209A9114875
:1024100001F09AFD002818D1002301930293039341
:1024200004930593802292010692089301A909481A
:1024300001F0C4FE00280AD1064800F0C9FA13B022
:1024400000BDFFF781FFFFF77FFFFFF77DFFFFF77D
:102450007BFFC04620010020002C014000B58BB05E
:102460000822002108A802F014FB1C22002101A868
:1024700002F00FFB21488023DB050360312343601A
:10248000002383601E4AC2600361836101F0ECFC9B
:10249000002828D100230893099308A9174801F0C0
:1024A00057FE002821D16023019300230293039358
:1024B0000593002201A9114801F046FD002816D11C
:1024C000042201A90D4801F03FFD002811D1082286
:1024D00001A90A4801F038FD00280CD1074800F096
:1024E00077FA0BB000BDFFF72FFFFFF72DFFFFF7C7
:1024F0002BFFFFF729FFFFF727FFC04668010020E9
:10250000204E000000B597B0302200210AA802F04A
:10251000C0FA1022002106A802F0BBFA1422002102
:1025200001A802F0B6FA03230A93023B0B930D9322
:102530000F330E930E3B129380235B021393802381
:102540005B0314930AA800F047FE002822D107235A
:102550000693053B0793002308930993012106A8DE
:1025600001F0C0F8002817D1202301930023049321
:1025700001A801F051F9002810D1094B094A5A600D
:1025800000229A6005321A601A6802210A431A6012
:1025900017B000BDFFF7D8FEFFF7D6FEFFF7D4FE59
:1025A00010E000E07FBB000010B590B001F0F4F93E
:1025B000FFF7A8FF174C210010313C22684602F0BB
:1025C0005FFA20686168A268E36801F02EFEFFF7F9
:1025D0007FFEFFF7BBFEFFF7E5FEFFF73FFF0E486C
:1025E000036800221A640D4C23680A325A639A6306
:1025F000DA630C2101F02EFD0021200001F02AFDFC
:102600000421200001F026FD0821200001F022FD18
:10261000FEE7C046D4000020200100206801002011
:10262000FEE7FEE770477047F0B5B9B0002200231F
:102630003692379334923593329233939D4B1A6886
:102640005B6801200021FDF713FFFDF74FFF040039
:102650000D00994B0027DF571B78012216001E4002
:102660001A4214D0954A1068516802000A430ED1EC
:102670000122002380185941904B18605960904BFB
:102680001B78012B26D001F097F939B0F0BD002E50
:10269000F5D09022D2051269120711D49B07EED40F
:1026A000874B1B78012B07D0854B01221A70022320
:1026B0001F43814B1F70E2E7814B02221A70F6E73D
:1026C0005B07DCD403239F437B4B1F70042217431B
:1026D0001F70D4E77B4E36AB119332AB109334AB03
:1026E0000F93310010313C22684602F0C9F930687E
:1026F0007168B268F36801F0E5FD349A359B2000FB
:102700002900FEF713FF02000B001292139334927C
:102710003593329A339B20002900FEF707FF06000D
:102720000F0032963397369A379B20002900FEF728
:10273000FDFE36903791644C08960997129A139BC8
:1027400006920793049005912100083110226846F3
:1027500002F096F9226863681AA802F03FF818227E
:102760001AA9200002F08CF9584D329A339B089236
:102770000993349A359B06920793369A379B0492B5
:102780000593290008311022684602F079F92A6879
:102790006B681AA802F022F818221AA9280002F081
:1027A0006FF922686368A068E168FEF7BDFA02F07D
:1027B00079F9169017912069616902F0DDFB189094
:1027C00019912168626820912192A368E4681293AC
:1027D00013942293239400220023249225932E689D
:1027E0006F6826962797AC68ED6812941395289425
:1027F00029952A922B9326A920AC200001F069FF8D
:1028000006000F002100200001F063FF04000D000E
:1028100032003B0020982199FEF788FE1294139510
:1028200022002B00FEF780FA02000B002698279961
:10283000FFF7E8F82C902D91289C299D2299239A46
:102840001491159232003B0014981599FEF76EFE14
:10285000129A139BFEF768FA02000B002000290071
:10286000FFF7D0F82E902F912A9C2B9D2498259924
:1028700032003B00FEF75AFE129A139BFEF754FA01
:1028800002000B0020002900FFF7BCF830903191C6
:102890002CA9080001F01DFF02F044FB02900391F7
:1028A000189B199C00930194169A179B084801F0F5
:1028B00053FDE8E6A86C0008D0000020C800002006
:1028C00018000020D400002000000020200000207C
:1028D0006801002010B5054B1B78DB0702D4034BC1
:1028E00001221A70082001F041F910BDD00000202B
:1028F00082B00A4B996901221143996199690A4092
:102900000092009ADA69802149050A43DA61DB699D
:102910000B400193019B02B07047C046001002407B
:1029200010B588B004001422002103A802F0B1F809
:102930002268124B9A4201D008B010BD104C626957
:102940008021C9020A43626163690B400193019BC4
:10295000C0230393AE3B04930F3B0693023B0793C4
:1029600003A9084801F03AF8E269802189030A4383
:10297000E261E3690B400293029BDDE700540040F3
:10298000001002400004004882B003680E4A9342DF
:1029900005D08022D20593420CD002B070470B4A7A
:1029A0009169802000010143916193690340009384
:1029B000009BF2E7054AD16901231943D161D2692D
:1029C00013400193019BE8E7002C014000100240F6
:1029D00010B588B004001422002103A802F059F8B1
:1029E00023681A4A934205D08022D205934217D019
:1029F00008B010BD164A5169802080020143516120
:102A0000536903400193019B80231B01039302231D
:102A100004930793902003A9C00500F0DFFFE7E7C8
:102A20000B4A516980208002014351615369034080
:102A30000293029B07230393053B04930793902083
:102A400003A9C00500F0CAFFD2E7C046002C014030
:102A50000010024003689A69920701D500229A6229
:102A600003689A69D20703D49A6901210A439A61DB
:102A70007047000070B504686068049D6D0D802685
:102A8000F6002E40064D3543A8438905890D1204F2
:102A900011431943049B19430143616070BDC04653
:102AA000FF63FF03F8B505000F00160003689A697D
:102AB000D2063BD55A68920104D459688022D201CB
:102AC0000A435A602B689C69A20615D47B1CF9D076
:102AD00000F07EFF801BB84201D8002FF2D16B6C52
:102AE000202213436B644123EA5400232232AB5467
:102AF000023AAB5401201AE01022DA612B6820243C
:102B0000DC612800FFF7A6FF2A68536808490B40DC
:102B100053606B6C042213436B644123EC54002319
:102B20003E32AB54023AAB54012000E00020F8BD25
:102B300000E800FE70B504000D00160023689B69D4
:102B40009B071CD4320029002000FFF7ABFF0028B0
:102B500017D16B1CF2D000F03BFF801BA84201D8BC
:102B6000002DEBD1636C2022134363644123E254B4
:102B700000232232A354023AA354012000E0002093
:102B800070BD0120FCE7F0B5C64600B507000D009A
:102B900090461E003B689C692C40641B63425C416C
:102BA000444516D1731CF5D000F012FF069BC01AE5
:102BB000B04201D8002EEDD17B6C202213437B6400
:102BC0004123FA5400232232BB54023ABB54012061
:102BD00000E0002080BCB846F0BD000070B582B0B7
:102BE000040015001E008023F2B2194800905B0417
:102BF0002000FFF73FFF079A06992000FFF79AFF92
:102C000000281ED1012E0ED12368EDB29D62079BD4
:102C10000093069B002280212000FFF7B4FF0028CC
:102C200013D102B070BD23682A0A9A62079A0699E6
:102C30002000FFF77FFF002805D12368EDB29D62D9
:102C4000E5E70120EDE70120EBE70120E9E7C046D9
:102C50000020008070B582B0040015001E00DAB2BA
:102C6000184B00930023FFF705FF079A06992000F1
:102C7000FFF760FF00281ED1012E0ED12368EDB2B0
:102C80009D62079B0093069B002240212000FFF7D6
:102C90007AFF002813D102B070BD23682A0A9A6215
:102CA000079A06992000FFF745FF002805D1236801
:102CB000EDB29D62E5E70120EDE70120EBE70120A1
:102CC000E9E7C0460020008070B505000C00160042
:102CD0002B689B699B061AD4320021002800FFF75D
:102CE000E1FE002815D100F073FE801BA04201D840
:102CF000002CEDD16B6C202213436B644123EA540A
:102D000000232232AB54023AAB54012070BD0020A4
:102D1000FCE70120FAE7000010B5041E59D041235A
:102D2000C35C002B43D041232422E2542268136861
:102D300001218B4313602268274B61680B401361AC
:102D40002268936825490B409360E368012B34D0D7
:102D5000226884231B02A1680B439360E368022B63
:102D600032D0226851681E4B0B4353602268D368EF
:102D70001A490B40D360236962691343A2691202A6
:102D800021681343CB602268E369216A0B43136017
:102D90002268136801210B431360002363644122FE
:102DA0001F31A15423630132A354002010BD4033CE
:102DB0000022C254FFF7B4FDB5E7226880231B024E
:102DC000A1680B439360C9E72368802212015A600F
:102DD000C7E70120EAE7C046FFFFFFF0FF7FFFFFE4
:102DE00000800002F0B587B00400039104920593BF
:102DF0000CAB20CB1F884123C35C202B00D0B3E059
:102E0000002D18D0002F16D04023C35C012B00D119
:102E1000ADE040230122C25400F0DAFD060080211B
:102E200000901923012209022000FFF7ACFE0028C0
:102E300006D0012099E080239B006364012094E088
:102E400041232122E25401331F32E2540023636400
:102E500065626785636301960E9B0093059B049AE8
:102E600003992000FFF7BAFE00280FD1638D9BB2B3
:102E7000FF2B10D9FF2323857F3B002200925B04A8
:102E8000FF3203992000FFF7F5FD21E040230022E7
:102E9000E254012069E0628D92B222858023D2B291
:102EA000002100919B0403992000FFF7E3FD0FE050
:102EB000628D92B222858023D2B2002100919B04C0
:102EC00003992000FFF7D6FD638D9BB2002B34D011
:102ED00032000E992000FFF72DFE002849D123680B
:102EE000626A12789A62636A01336362638D013B9E
:102EF0009BB26385238D013B9BB22385628D92B289
:102F0000002AE1D0002BDFD100960E9B0022802109
:102F10002000FFF738FE00282DD1638D9BB2FF2BD8
:102F2000C6D9FF2323857F3B002200925B04FF323A
:102F300003992000FFF79EFDC6E732000E9920009E
:102F4000FFF7C2FE002818D123682022DA61216829
:102F50004B680B4D2B404B604123E254002322323F
:102F6000A354023AA35400E0022007B0F0BD0220AF
:102F7000FBE70120F9E70120F7E70120F5E7C0466C
:102F800000E800FEF0B587B00400039104920593B9
:102F90000CAB20CB1F884123C35C202B00D0B5E0B5
:102FA000002D18D0002F16D04023C35C012B00D178
:102FB000AFE040230122C25400F00AFD0600802148
:102FC00000901923012209022000FFF7DCFD0028F0
:102FD00006D001209BE080239B006364012096E0E3
:102FE00041232222E25401331E32E254002363645F
:102FF00065626785636301960E9B0093059B049A47
:1030000003992000FFF726FE00280FD1638D9BB2A5
:10301000FF2B10D9FF2323857F3B424A00925B049C
:10302000FF2203992000FFF725FD21E04023002225
:10303000E25401206BE0628D92B222858023D2B2ED
:10304000384900919B0403992000FFF713FD0FE01E
:10305000628D92B222858023D2B2002100919B041E
:1030600003992000FFF706FD638D9BB2002B36D03D
:1030700000960E9B002204212000FFF784FD00280B
:1030800049D123685B6A626A1370636A01336362C1
:10309000238D013B9BB22385628D013A92B26285FA
:1030A000628D92B2002ADFD0002BDDD100960E9BFC
:1030B000002280212000FFF766FD00282DD1638DBE
:1030C0009BB2FF2BC4D9FF2323857F3B00220092B4
:1030D0005B04FF3203992000FFF7CCFCC4E7320009
:1030E0000E992000FFF7F0FD002818D12368202258
:1030F000DA6121684B680C4D2B404B604123E25450
:1031000000232232A354023AA35400E0022007B065
:10311000F0BD0220FBE70120F9E70120F7E70120DD
:10312000F5E7C0460024008000E800FEF0B541232A
:10313000C35C202B20D12033C35C012B1ED0402444
:1031400001220255412524234355066833689343E1
:103150003360066833680A4F3B4033600668336863
:103160001943316001680B6813430B6020234355FA
:10317000002303550020F0BD0220FCE70220FAE7FF
:10318000FFEFFFFFF0B54123C35C202B1ED120339E
:10319000C35C012B1CD0402401220255412524236D
:1031A0004355066833689343336006683368094FB4
:1031B0003B4009021943316001680B6813430B60FF
:1031C00020234355002303550020F0BD0220FCE7D7
:1031D0000220FAE7FFF0FFFF70B582B0041E00D1B5
:1031E0002EE20368DB0726D5AE4B5A680C2313404A
:1031F000042B18D0AB4B5A680C231340082B0ED06D
:103200006368012B3CD0002B51D1A64B1A68A6490C
:103210000A401A601A68A5490A401A6036E0A14BB4
:103220005B68DB03ECD59F4B1B689B0303D563688E
:10323000002B00D107E223689B0772D5994B5B688E
:103240000C221A425DD0974B5A680C231340082B6E
:1032500053D0E368002B00D185E0924A1368012126
:103260000B43136000F0B4FB05008E4B1B689B07FB
:1032700070D400F0ADFB401B0228F6D90320E0E13A
:10328000884A116880235B020B4313606368002B3C
:1032900025D000F09DFB0500824B1B689B03CAD420
:1032A00000F096FB401B6428F6D90320C9E1052BEA
:1032B00009D07C4B1A687C490A401A601A687B491D
:1032C0000A401A60E2E7774B19688022D2020A436B
:1032D0001A601968802252020A431A60D6E700F089
:1032E00077FB05006F4B1B689B03A4D500F070FBB8
:1032F000401B6428F6D90320A3E16A4B5B68DB031B
:10330000A7D4684B1B689B0703D5E368012B00D04B
:103310009BE164490B68F82293432269D20013436E
:103320000B6023681B0744D5E369002B2ED05D4A50
:10333000536A01210B43536200F04AFB0500594BCD
:103340005B6A9B0735D400F043FB401B0228F6D98B
:10335000032076E153490B68F82293432269D20097
:1033600013430B60DDE74F4A136801218B43136061
:1033700000F02EFB05004B4B1B689B07D1D500F0DE
:1033800027FB401B0228F6D903205AE1454A536A1D
:1033900001218B43536200F01BFB0500414B5B6A2C
:1033A0009B0706D500F014FB401B0228F6D903202A
:1033B00047E123685B0700D480E03A4BDB69DB0020
:1033C0001DD4384AD169802040050143D161D369B9
:1033D00003400193019B0125354B1B68DB0510D58C
:1033E000A368012B21D0002B36D12E4B1A6A012164
:1033F0008A431A621A6A03318A431A621AE0002564
:10340000EAE72B4A116880235B000B43136000F04E
:10341000DFFA0600264B1B68DB05E1D400F0D8FA82
:10342000801B6428F6D903200BE11E4A136A012190
:103430000B431362A368002B24D000F0C9FA0600E6
:10344000184B1B6A9B0737D400F0C2FA801B194B3C
:103450009842F5D90320F4E0052B09D0114B1A6AE4
:1034600001218A431A621A6A03318A431A62E1E728
:103470000C4B1A6A04210A431A621A6A03390A4376
:103480001A62D7E700F0A4FA0600064B1B6A9B07F6
:1034900012D500F09DFA801B064B9842F5D9032007
:1034A000CFE0C04600100240FFFFFEFFFFFFFBFF22
:1034B0000070004088130000012D33D02368DB0624
:1034C00010D56369012B33D0053351D1654A536B55
:1034D00004218B435363536BF4318B43A169C900BF
:1034E0000B435363236A002B00D1B0E05D4A51685F
:1034F0000C220A40082A00D18AE0022B4FD0594AF8
:10350000136859490B40136000F062FA0400554BF0
:103510001B689B017AD500F05BFA001B0228F6D9E4
:1035200003208EE04F4AD36950490B40D361C5E771
:103530004C4B5A6B04210A435A635A6B03390A43B2
:103540005A6300F045FA0500464B5B6B9B0706D4B7
:1035500000F03EFA401B0228F6D9032071E04149F1
:103560004B6BF8229343A269D20013434B63B9E734
:103570003C4B5A6B04210A435A635A6B03398A4302
:103580005A6300F025FA0500364B5B6B9B07A9D503
:1035900000F01EFA401B0228F6D9032051E0314A00
:1035A000136831490B40136000F012FA05002D4BEF
:1035B0001B689B0106D500F00BFA401B0228F6D9C8
:1035C00003203EE0274BDA6A0F218A43E16A0A436F
:1035D000DA625A6826490A40A16A606A01430A43CE
:1035E0005A601968802252040A431A6000F0F0F908
:1035F00004001C4B1B689B0106D400F0E9F9001B7A
:103600000228F6D903201CE000201AE0002018E070
:10361000012B1ED0134B5A68D96A80235B021340DA
:10362000606A834217D10F230B40E16A8B4214D1A9
:10363000F0239B031A40A36A9A4210D1002000E0B5
:10364000012002B070BD0120FBE70120F9E7002056
:10365000F7E70120F5E70120F3E70120F1E701207A
:10366000EFE7C04600100240FFFFFFFEFFFFFFEF45
:10367000FFFFC2FF10B588B004AA164B13CB13C2CC
:103680001B6813606A46144B13CB13C21B6813608C
:10369000124B5A680C231340082B02D0104808B074
:1036A00010BD910C0733194004A8445C0B49C96A4A
:1036B0000B406946C95CD30304D50948FCF724FDD7
:1036C0006043ECE763011B1B9801C01AC00000199E
:1036D0000002E4E7B06C0008C46C0008001002406F
:1036E00000127A0070B504000D00002800D17EE0C1
:1036F000434B1A68012313408B420AD240490B689E
:10370000012293432B430B600B681A40AA4200D05E
:103710006FE023689A070ED55B0705D5394A5168D3
:10372000E023DB000B435360364A5368F0218B43A0
:10373000A1680B4353602368DB072DD56368012B19
:103740001ED0022B22D02F4A1268920753D52D4942
:103750004A680320824313434B6000F039F90600A6
:10376000284B5B680C221A4063689B009A4213D076
:1037700000F02EF9801B244B9842F1D9032035E04C
:10378000204A12689203E2D401202FE01D4A1268F9
:103790009201DCD4012029E0194B1A68012313405F
:1037A000AB4209D916490B68012293432B430B60A6
:1037B0000B681A40AA4220D123685B0706D5114A3C
:1037C000536812490B40E1680B435360FFF752FF07
:1037D0000C4B5A6812090F2313400D4AD35CD84092
:1037E0000C4B1860032000F0AFF8002070BD0120E2
:1037F000FCE70120FAE70120F8E70120F6E7C046E0
:10380000002002400010024088130000FFF8FFFF74
:10381000D86C00084000002070B582B00400036836
:10382000DB0337D5424BDB69DB0053D4404AD16917
:10383000802040050143D161D36903400193019B7E
:1038400001253C4B1B68DB0546D5394B1A6AC02362
:103850009B00110019401A4213D0626813408B423A
:103860000FD0334B186A344A02401E6A8021490245
:1038700031431962196A314E314019621A62C30725
:103880003ED42B4A136A2C490B4061680B431362E8
:10389000012D44D02368DB0706D5254A136B03218D
:1038A0008B43A1680B43136323689B0606D5204A0C
:1038B000136B10218B43E1680B43136323685B0593
:1038C00032D51B4A136B40218B4321690B43136391
:1038D00000202AE00025B4E7164A116880235B0027
:1038E0000B43136000F074F80600124B1B68DB05F5
:1038F000ABD400F06DF8801B6428F6D9032014E0E7
:1039000000F066F806000A4B1B6A9B07B9D400F06A
:103910005FF8801B0A4B9842F5D9032005E0D36974
:1039200008490B40D361B5E7002002B070BDC04626
:103930000010024000700040FFFCFFFFFFFFFEFF91
:1039400088130000FFFFFFEF10B504000F4B19783C
:10395000FA208000FCF7D8FB01000D4B1868FCF73B
:10396000D3FB00F04DF900280DD1032C01D9012023
:103970000AE0013000222100404200F005F9054B29
:103980001C60002000E0012010BDC046380000206F
:10399000400000203C00002010B5064A13681021AA
:1039A0000B4313600320FFF7CFFFFEF7A1FF0020BA
:1039B00010BDC04600200240034A1168034B1B782B
:1039C0005B1813607047C046B0010020380000202B
:1039D000014B18687047C046B0010020F0B583B0B5
:1039E000002357E084685F000326BE40B4432600EE
:1039F000CC68BC4034438460446894434A681609E8
:103A0000012232409A402243426053E0DC080834ED
:103A1000A400265805321A4092000F279740BE4353
:103A20000F6997403A003243225057E0032600E0E6
:103A30000026A64034003C4302329200444E94518A
:103A4000444A1468EA432600AE434F68FF0301D599
:103A50002C4326003F4C26606468260016404F68C1
:103A6000BF0301D52C4326003A4C6660A4682600AB
:103A700016404F68FF0201D52C432600354CA66046
:103A8000E46822404E68B60201D52A002243314C38
:103A9000E26001330C682200DA4057D001229A40DC
:103AA000250015401442F4D003244E683440013CF4
:103AB000012C97D903224C682240032A09D0C268FE
:103AC0005E000324B440A24314008A68B24022433B
:103AD000C26003224C682240022A97D004685E002C
:103AE00003221700B740BC434F683A40B24022431C
:103AF0000260C02292024C681442CAD0164CA669D9
:103B000001221643A661A46922400192019A9A08F3
:103B1000941CA4000E4EA75903241C40A4000F2699
:103B2000A640B7439026F605B04281D00B4EB04276
:103B300008D00B4EB04207D00A4EB04200D175E714
:103B4000052676E7012674E7022672E703B0F0BD8A
:103B50000000014000040140001002400004004841
:103B600000080048000C00487047000010B5054BE5
:103B70005B69184200D110BD024B5861FFF7F4FF9A
:103B8000F9E7C0460004014070B5002811DB830846
:103B9000134EC0339B009D5903242040C000FF22D8
:103BA00014008440A54389010A4082402A439A5167
:103BB00070BD0F230340083B9B0806339B00094A56
:103BC000944663445C6803221040C000FC32150038
:103BD0008540AC4389010A40824022435A60E7E7AE
:103BE00000E100E000ED00E0002805DB1F231840A5
:103BF0001E3B8340014A13607047C04600E100E06D
:103C0000013880235B0498420FD2094A506009486A
:103C1000036A1B021B0AC02109060B43036200232F
:103C2000936007331360002070470120FCE7C04613
:103C300010E000E000ED00E030B5036A012293439C
:103C40000362036A426884697325AC430D682C43A0
:103C50000225AB438D682B43144DA84208D0144D68
:103C6000A84205D0134DA84202D0134DA84205D159
:103C70000825AB43CD682B430425AB430B4DA8422D
:103C800008D00B4DA84205D00A4DA84202D00A4DDB
:103C9000A84205D1094D2A404D692A438D692A431E
:103CA000426084614A684263036230BD002C014077
:103CB000004001400044014000480140FFFCFFFF7C
:103CC00070B5036A194A13400362036A4268C46903
:103CD0007325AC430E682643154C23408C682402A0
:103CE0002343144CA04219D0124CA04208D0124CCD
:103CF000A04205D0114CA04202D0114CA04207D1E5
:103D0000104C14404A69120122438C6925012A4350
:103D10004260C6614A68C263036270BD0A4C1C40BF
:103D2000CB681B022343094C2340DDE7FFFEFFFF66
:103D3000FFFDFFFF002C0140004001400044014016
:103D400000480140FFCFFFFFFFF7FFFFFFFBFFFF32
:103D500030B5036A134A13400362026A4368C469B8
:103D6000114D2C400D682D022C43104D15408A68D2
:103D700012032A430E4DA84208D00E4DA84205D08A
:103D80000D4DA84202D00D4DA84204D10C4D2B4040
:103D90004D69AD012B434360C4614B68036402620B
:103DA00030BDC046FFEFFFFFFF8CFFFFFFDFFFFFCF
:103DB000002C014000400140004401400048014007
:103DC000FFBFFFFF0368214A904206D08022D20540
:103DD000904202D01E4A904203D1702293434A6817
:103DE00013431A4A904212D08022D20590420ED03C
:103DF000174A90420BD0174A904208D0164A904278
:103E000005D0164A904202D0154A904203D1154A75
:103E10001340CA681343802293434A6913430360E3
:103E20008B68C3620B688362084B984208D00A4BC8
:103E3000984205D0094B984202D0094B984201D1D3
:103E40000B690363012343617047C046002C0140A6
:103E500000040040002000400040014000440140B8
:103E600000480140FFFCFFFF70B5041E26D03D2333
:103E7000C35C002B1CD03D2502236355210001C9E2
:103E8000FFF7A0FF01234622A354083AA3540132AE
:103E9000A3540132A3540132A3540132A35401327A
:103EA000A3540132A3540132A3546355002070BDC2
:103EB0003C330022C254FEF767FDDCE70120F6E741
:103EC00070B5036A102293430362036A42688469EF
:103ED000174D2C400D682D0225432024A3438C68E8
:103EE00024012343134CA04219D0124CA04208D005
:103EF000114CA04205D0114CA04202D0104CA0425F
:103F000007D1104C14404A69920022438C69A600E4
:103F10003243426085614A688263036270BD8024D7
:103F2000A3431C00CB681B0123434024A343DCE7CD
:103F3000FF8CFFFF002C0140004001400044014085
:103F400000480140FFF3FFFF70B504000D003C2363
:103F5000C35C012B00D16AE03C230121C154082A33
:103F600050D01CD8002A38D0042A16D12900006865
:103F7000FFF7A6FF2268916980231B010B43936121
:103F8000226893692B490B40936121688B692A69E8
:103F9000120213438B6100201BE0080019E00C2A79
:103FA00016D129000068FFF7D3FE2268D16980236B
:103FB0001B010B43D3612268D3691E490B40D361B7
:103FC0002168CB692A6912021343CB61002000E00B
:103FD00001203C230022E25470BD29000068FFF755
:103FE0002BFE2268936908210B4393612268936931
:103FF00004398B4393612268936929690B43936168
:104000000020E6E729000068FFF75AFE2268D3691E
:1040100008210B43D3612268D36904398B43D361F0
:104020002268D36929690B43D3610020D1E70220BC
:10403000D2E7C046FFFBFFFF10B51F231940012444
:104040008C40036AA3430362036A8A4013430362FA
:1040500010BD000010B50400002936D13E23C35C1A
:10406000013B5A1E9341DBB2002B62D1002945D19E
:104070003E330222E25401222068FFF7DDFF23686D
:104080002E4A934208D02E4A934205D02D4A93429D
:1040900002D02D4A934204D1596C802212020A4365
:1040A0005A642368254A934238D08022D20593422D
:1040B00034D0264A934231D0214A93422ED01A68F6
:1040C00001210A431A60002034E0042908D008299D
:1040D0000DD04123C35C013B5A1E9341DBB2C3E7C1
:1040E0003F23C35C013B5A1E9341DBB2BCE7402334
:1040F000C35C013B5A1E9341DBB2B5E7042905D0EE
:10410000082907D041230222E254B4E73F230222C8
:10411000E254B0E740230222E254ACE79968072258
:104120000A40062A07D01A6801210A431A600020B3
:1041300000E0012010BD0020FCE7C046002C01403B
:10414000004001400044014000480140000400409C
:1041500030B53C23C35C012B28D03C230122C25440
:1041600001330132C25403685A689C687025AA431F
:104170000D682A435A6003680D4A934209D0802291
:10418000D205934205D00B4A934202D00A4A934289
:1041900004D1802294434A6814439C603D23012249
:1041A000C254013B0022C254002030BD0220FCE773
:1041B000002C0140000400400040014010B53C23A9
:1041C000C35C012B21D03C2201238354104BCC68CB
:1041D00023408C6823430F4C23404C6823430E4CF0
:1041E00023400C6823430D4C23400C6923430C4CA3
:1041F00023404C6923430B4C2340C9690B4301689E
:104200004B6400238354002010BD0220FCE7C0460D
:10421000FFFCFFFFFFFBFFFFFFF7FFFFFFEFFFFFCD
:10422000FFDFFFFFFFBFFFFF704784B0F0B587B02F
:104230000C900D910E920F93FA239B000293012391
:10424000019317246C4400947522D0210CA8FEF72A
:1042500099FE2378682B04D007B0F0BC08BC04B0EA
:10426000184716246C4400272770FA26B6000296D9
:10427000012501950094673B6B22D0210CA8FEF725
:10428000B1FD07232370029601950094063B192285
:10429000D0210CA8FEF7A6FD277002960195009488
:1042A00001231C22D0210CA8FEF79CFD277002964A
:1042B0000195009401231B22D0210CA8FEF792FD4A
:1042C000CAE7000084B030B587B00A900B910C9219
:1042D0000D9304AC00230493A380FA239B00029364
:1042E000062301930094053B4322D0210AA8FEF740
:1042F00049FE2078000200B263781843A5782D02A9
:104300002DB2E3781D4323791B021BB264791C4351
:10431000FDF75EFF00220F4BFCF706FD1D9B1860AA
:1043200059602800FDF754FF00220A4BFCF7FCFC03
:104330001E9B186059602000FDF74AFF0022054BC4
:10434000FCF7F2FC1F9B1860596007B030BC08BC3A
:1043500004B018470060604070B5040010001900F8
:104360001A4A1B4BFCF7E0FC00221A4BFDF7DEF863
:104370000022194BFCF79CF92568FCF799F8686353
:10438000124A134B04980599FCF7CEFC0022114BFE
:10439000FDF7CCF80022104BFCF78AF92568FCF7F2
:1043A00087F8A863094A0A4B06980799FCF7BCFCF2
:1043B0000022084BFDF7BAF80022074BFCF778F90A
:1043C0002468FCF775F8E063002070BD6F1283C0AD
:1043D000CA21094000589B4000407F4082B0F0B5A0
:1043E000C64600B58EB08046149215932022002157
:1043F00000F04FFB149815991C9B1D9C029303948D
:104400001A00230000900191FDF790F804000D00C0
:10441000169E179F1E9A1F9B069207930496059758
:1044200030003900FDF782F802000B00200029005F
:10443000FDF7E8FA04000D001899199A0800110018
:10444000209E219F0A960B9732003B00089009910D
:10445000FDF76CF802000B0020002900FDF7D2FAEE
:1044600004000D001A991B9A08001100229E239F38
:1044700032003B000C900D91FDF758F802000B0044
:1044800020002900FDF7BEFA444620606160069ACC
:10449000079B00980199FDF749F804000D00049A64
:1044A000059B02980399FDF741F802000B002000DC
:1044B0002900FCF7FDF804000D0032003B000898CD
:1044C0000999FDF733F802000B0020002900FCF7E2
:1044D000EFF804000D000C9A0D9B0A980B99FDF75C
:1044E00025F802000B0020002900FDF78BFA444656
:1044F000A060E1600A9A0B9B00980199FDF716F8FD
:1045000004000D0032003B0004980599FDF70EF8F9
:1045100002000B0020002900FDF774FA04000D00D2
:10452000089A099B02980399FDF700F802000B0016
:1045300020002900FCF7BCF804000D000C9A0D9B2C
:1045400006980799FCF7F2FF02000B0020002900F3
:10455000FCF7AEF844462061616132003B000098F0
:104560000199FCF7E3FF04000D000A9A0B9B0498E5
:104570000599FCF7DBFF02000B0020002900FCF787
:1045800097F804000D00089A099B06980799FCF714
:10459000CDFF02000B0020002900FDF733FA0400D4
:1045A0000D000C9A0D9B02980399FCF7BFFF0200C7
:1045B0000B0020002900FCF77BF843469861D96185
:1045C00040460EB080BCB846F0BC08BC02B01847EC
:1045D00010B58268C16880242406A44661440B009B
:1045E0008260C3600269416961440B0002614361FA
:1045F0008269C16961440B008261C36110BDD0B59D
:1046000004000268436810001900FCF78FFF0600E1
:104610000F00A268E36810001900FCF787FF020092
:104620000B0030003900FCF743F806000F00226948
:10463000636910001900FCF779FF02000B003000DD
:104640003900FCF735F806000F00A069E1690200A7
:104650000B00FCF76BFF02000B0030003900FCF789
:1046600027F8D0BD82B070B506000492059304A867
:10467000FFF7AEFF04A8FFF7C2FF04000D00020021
:104680000B0004980599FCF74FFB0490059122005C
:104690002B0006980799FCF747FB0690079122002C
:1046A0002B0008980999FCF73FFB0890099122001C
:1046B0002B000A980B99FCF737FB0A900B912022EC
:1046C00004A9300000F0DCF9300070BC08BC02B076
:1046D0001847F8B507000E000A684B684168006883
:1046E000FCF724FF04000D00B268F368B868F968AD
:1046F000FCF71CFF02000B0020002900FBF7D8FF8D
:1047000004000D003869796932697369FCF70EFF9E
:1047100002000B0020002900FBF7CAFFF8BD82B0A1
:1047200030B5B1B0040034923593002200232892B2
:1047300029933C9A3D9B2A922B933E9A3F9B0E9243
:104740000F932C922D93409A419B0E920F932E9291
:104750002F9306AD202228A9280000F091F91822F5
:1047600036A9684600F08CF9349A359B20A8FFF7EB
:1047700035FE182236A9684600F082F9349A359B36
:1047800018A8FFF76FFF202218A9280000F078F979
:10479000182222A9684600F073F9209A219B10A8DC
:1047A000FFF71CFE202210A920A800F069F9229A28
:1047B000239B0E920F9322606360249A259B0E9296
:1047C0000F93A260E360269A279B22616361200019
:1047D00031B030BC08BC02B01847000082B0F0B560
:1047E000C64600B5D2B0804658925993182200218F
:1047F00000F04FF9002600274C964D974E964F97A4
:104800000022764B509251935E985F9900F0E4FA43
:104810000E900F9103000C00469347945E985F99A9
:1048200000F02EFB02000B00109211934892499366
:104830004A964B976098619900F022FB04000D00A6
:1048400002000B0010981199FCF770FE0A0001009D
:10485000149115924091419222002B000E980F99CD
:10486000FCF764FE04000D001694179542944395DE
:104870006098619900F0B0FA03000C001293139451
:10488000449345940022564B5E985F99FCF74EFE88
:1048900004000D0000F0A0FA3890399120002900A2
:1048A00000F0EEFA04000D0032003B00FCF73EFE83
:1048B0003A903B913C903D913E943F950022484B6D
:1048C00060986199FCF732FE04000D0000F084FA54
:1048D000309031912000290000F0D2FA04000D0040
:1048E00002000B000E980F99FCF720FE32903391D6
:1048F00022002B0010981199FCF718FE3490359186
:1049000032003B0020002900FCF710FE3690379162
:104910000022334B62986399FCF708FE04000D00F7
:1049200000F05AFA289029912000290000F0A8FAF6
:1049300004000D0002000B0014981599FCF7F6FD19
:104940002A902B9122002B0016981799FCF7EEFD68
:104950002C902D9122002B0012981399FCF7E6FD64
:104960002E902F9106AC202230A9200000F088F86C
:1049700018222AA9684600F083F8289A299B20A8C3
:10498000FFF72CFD202238A9200000F079F818222A
:1049900022A9684600F074F8209A219B18A8FFF716
:1049A0001DFD202218A920A800F06AF8182258A995
:1049B000200000F065F8182222A9684600F060F88F
:1049C000209A219B4046FFF7AAFE404652B080BC89
:1049D000B846F0BC08BC02B01847C0460000F03F23
:1049E0000000E03F0D4885460D480E490E4A002361
:1049F00002E0D458C4500433C4188C42F9D30B4A93
:104A00000B4C002301E013600432A242FBD3FFF7FA
:104A10000BFC00F011F8FDF7C7FDFEE700200020B9
:104A200000000020A8000020706F0008A8000020EF
:104A3000B4010020FEE7000070B500260C4D0D4CBF
:104A4000641BA410A64209D1002602F0E1F80A4D29
:104A50000A4C641BA410A64205D170BDB300EB58EC
:104A600098470136EEE7B300EB5898470136F2E776
:104A7000686F0008686F0008686F00086C6F0008B6
:104A8000002310B59A4200D110BDCC5CC454013350
:104A9000F8E703008218934200D170471970013380
:104AA000F9E70000F8B54E4657464546DE46A34BAB
:104AB000E0B54E00804689468A4676089E421CDD57
:104AC0009F4B9E4209DC06D05346002B00DCBAE027
:104AD0009C4B9D4A09E00028F6D042464B46404692
:104AE0004946FBF7E5FD03000A0018001100F0BC81
:104AF000BB46B246A946A046F8BD944B9E4200DD97
:104B0000A4E0934B9E4200DC8FE001235B429B4676
:104B100042464B4640464946FCF708FD02000B0062
:104B200006000F00FCF702FD04000D00894A8A4BC5
:104B3000FCF7FCFC894A8A4BFBF7BAFD22002B00EC
:104B4000FCF7F4FC874A884BFBF7B2FD22002B00F0
:104B5000FCF7ECFC854A864BFBF7AAFD22002B00F4
:104B6000FCF7E4FC834A844BFBF7A2FD22002B00F8
:104B7000FCF7DCFC814A824BFBF79AFD32003B00DC
:104B8000FCF7D4FC7F4A804B06000F002000290070
:104B9000FCF7CCFC7D4A7E4BFCF734FF22002B0057
:104BA000FCF7C4FC7B4A7C4BFCF72CFF22002B005B
:104BB000FCF7BCFC794A7A4BFCF724FF22002B005F
:104BC000FCF7B4FC774A784BFCF71CFF22002B0063
:104BD000FCF7ACFC0B005946020001315CD0594691
:104BE0003000CC003900FBF763FD42464B46FCF732
:104BF0009DFC6E4D6E4B2D191C1922686368FCF7E5
:104C000001FF42464B46FCF7FDFE02000B00286800
:104C10006968FCF7F7FE030050460A00002800DB35
:104C200063E7802212068A185FE7624A624BFBF74D
:104C30003FFD0022614BFBF707FC002800D164E731
:104C400043464A4651E73F4B5D4A4EE700F014F9B0
:104C50005C4B04000D009E422FDC5B4B9E4255DCFA
:104C600002000B00FBF724FD0022544BFCF7CAFEA8
:104C7000802306000F000022DB0520002900FBF73F
:104C800017FD0B00020039003000FCF74DF800233F
:104C9000804689469B463BE730003900FBF708FD1C
:104CA00042464B46FCF742FC02000B004046494698
:104CB000FCF7A8FE03000A0017E7444B9E421ADCEB
:104CC0000022434BFCF79EFE002206000F00404BE3
:104CD00020002900FCF72AFC0022384BFBF7E8FCF7
:104CE0000B00020039003000FCF71EF8022380465A
:104CF00089469B460CE70B00020036490020FCF772
:104D000013F80323804689469B4601E700222B4B7C
:104D1000FCF778FE002206000F00284B2000290037
:104D2000FBF7C6FC0B00020039003000FBF7FCFF6C
:104D30000123804689469B46EAE6C046FFFF0F44B2
:104D40000000F07F182D4454FB21F93FFFFFDB3FAB
:104D5000FFFF1F3E11DA22E33AAD903FEB0D7624C0
:104D60004B7BA93F513DD0A0660DB13F6E204CC595
:104D7000CD45B73FFF8300922449C23F0D5555559D
:104D80005555D53F2F6C6A2C44B4A2BF9AFDDE5214
:104D90002DDEAD3F6D9A74AFF2B0B33F711623FEB6
:104DA000C671BC3FC4EB98999999C93F486D0008FA
:104DB000686D00089C7500883CE4377E0000F03F79
:104DC000FB21F9BFFFFFF23FFFFFE53FFF7F0340FD
:104DD0000000F83F0000F0BFD0B5254A4B0086B078
:104DE0005B08934222DD234A934209DD02000B0057
:104DF000FCF708FE02000B001000190006B0D0BD41
:104E000002AA00F0D1FC03231840049A059B012854
:104E100013D0022822D0002819D002980399012427
:104E2000009401F01BFD02000B00E5E700220023C7
:104E300000F09AFF02000B00DEE700900298039951
:104E400001F00CFD80231B060200CB18D4E702986A
:104E5000039900F089FF02000B00CDE70298039947
:104E600000F082FF80231B060200CB18C4E7C04677
:104E7000FB21E93FFFFFEF7F4B0059087047C04619
:104E8000D0B5264A4B0086B05B08934222DD244A07
:104E9000934209DD02000B00FCF7B4FD02000B0099
:104EA0001000190006B0D0BD02AA00F07DFC03235B
:104EB0001840049A059B012815D0022823D0002809
:104EC00018D00298039900F04FFF80231B060200C0
:104ED000CB18E5E7002300220093002301F0BEFC7D
:104EE00002000B00DCE70298039900F03DFF02008E
:104EF0000B00D5E7012402980399009401F0AEFC61
:104F000002000B00CCE7012402980399009401F001
:104F1000A5FC80231B060200CB18C1E7FB21E93F5B
:104F2000FFFFEF7FF8B504000D0000F04FF82200FE
:104F300006000F002B0020002900FDF7F5F80028DF
:104F400012D120002900FFF797FF0022084BFBF742
:104F50007BFA002808D001F055FE212303600548A4
:104F600001F0CEFD06000F0030003900F8BDC0464C
:104F70000000F03FD46C0008F8B504000D0000F00C
:104F800021FA220006000F002B0020002900FDF767
:104F9000CBF8002812D120002900FFF76DFF002276
:104FA000084BFBF751FA002808D001F02BFE212313
:104FB0000360054801F0A4FD06000F003000390031
:104FC000F8BDC0460000F03FD46C0008F0B5DE4AE2
:104FD0004B0007000E0085B05B0893420CDDDB4AF6
:104FE00094466344034300D0ACE0002900DCB4E005
:104FF0000020002105B0F0BDD54A934206DCD54A19
:10500000934200DDACE0D448D449F3E7002900DA4C
:105010001BE102000B000020D149FCF7F3FC002249
:10502000D04BFCF783FA04000D0000F0C5FDCE4A1A
:105030000F0000900191CD4B20002900FCF776FA7B
:10504000CB4ACC4BFBF734FB22002B00FCF76EFA6B
:10505000C94ACA4BFCF7D6FC22002B00FCF766FAC3
:10506000C74AC84BFBF724FB22002B00FCF75EFA73
:10507000C54AC64BFCF7C6FC22002B00FCF756FACB
:10508000C34AC44BFBF714FB22002B00FCF74EFA7B
:10509000C14A02900391C14B20002900FCF746FA57
:1050A000BF4AC04BFCF7AEFC22002B00FCF73EFAD7
:1050B000BD4ABE4BFBF7FCFA22002B00FCF736FA88
:1050C000BB4ABC4BFCF79EFC22002B00FCF72EFADF
:1050D0000022A34BFBF7ECFA02000B0002980399A5
:1050E000FBF722FE009A019BFCF720FA00260290B3
:1050F000039132003B0030003900FCF717FA020040
:105100000B0020002900FCF77DFC320004000D009C
:10511000009801993B00FBF7CBFA02000B0020003E
:105120002900FBF701FE02000B0002980399FBF730
:10513000BFFA32003B00FBF7BBFA02000B00FBF7A3
:10514000B7FA57E702000B0038003100FCF75AFCB1
:1051500002000B00FBF7E8FD4CE77F48964949E762
:1051600002000B0038003100FCF7E0F904000D00EC
:105170007D4A7E4BFCF7DAF97D4A7E4BFBF798FAC5
:1051800022002B00FCF7D2F97B4A7C4BFCF73AFC5F
:1051900022002B00FCF7CAF9794A7A4BFBF788FA10
:1051A00022002B00FCF7C2F9774A784BFCF72AFC67
:1051B00022002B00FCF7BAF9754A764BFBF778FA18
:1051C00022002B00FCF7B2F9734A00900191734B57
:1051D00020002900FCF7AAF9714A724BFCF712FC77
:1051E00022002B00FCF7A2F96F4A704BFBF760FA24
:1051F00022002B00FCF79AF96D4A6E4BFCF702FC7B
:1052000022002B00FCF792F90022554BFBF750FAD5
:1052100002000B0000980199FBF786FD3A0033006D
:10522000FCF784F902000B0064486549FCF7EAFBCF
:1052300002000B0038003100FCF7E4FB02000B0019
:1052400045484649FCF7DEFBD4E600223800310031
:10525000434BFBF72DFA0022424BFCF767F90400A1
:105260000D00414A414BFCF761F9414A414BFBF7C4
:105270001FFA22002B00FCF759F93F4A3F4BFCF77D
:10528000C1FB22002B00FCF751F93D4A3D4BFBF7D7
:105290000FFA22002B00FCF749F93B4A3B4BFCF785
:1052A000B1FB22002B00FCF741F9394A394BFBF7DF
:1052B000FFF922002B00FCF739F900900191200042
:1052C000290000F079FC344A06000F002000290074
:1052D000324BFCF72BF9324A324BFCF793FB22009E
:1052E0002B00FCF723F9304A304BFBF7E1F92200A1
:1052F0002B00FCF71BF92E4A2E4BFCF783FB2200F8
:105300002B00FCF713F90022154BFBF7D1F9020033
:105310000B0000980199FBF707FD32003B00FCF7FA
:1053200005F9264A264BFCF76DFB32003B00FBF7E4
:10533000BFF902000B00FBF7BBF902000B000648A7
:105340001D49FCF75FFB55E6FFFFEF3F000010C073
:10535000FFFFDF3F0000603C182D4454FB21F93F64
:105360000000F03F0000E03F09F7FD0DE13D023F86
:1053700088B20175E0EF493F3B8F68B52882A43FB2
:105380005544880E55C1C93F7D6FEB0312D6D43FFB
:10539000555555555555C53F82922EB1C5B8B33FA9
:1053A00059018D1B6C06E63FC88A599CE52A0040CE
:1053B0004B2D8A1C273A0340FB210940075C14331C
:1053C00026A6913CF0B54F46D64680B5D54B4E004B
:1053D00007008A46894689B076089E422EDDD24B68
:1053E0009C466644064312D002000B00380051462A
:1053F000FCF708FB02000B00FBF796FC03000A0019
:105400001800110009B0C0BCBA46B146F0BDC74A89
:10541000C74B38005146FCF789F8C64A04000D0016
:10542000C54B38005146FCF781F802000B00200004
:105430002900FBF73DF903000A00E1E7BF4B9E425C
:1054400011DCF9239B059E4200DB02E1BC4ABD4B07
:1054500038005146FBF72CF90022BB4BFAF7F4FF5A
:10546000002800D0F2E038005146FFF705FD0200A9
:105470000B000020B449FCF7C5FA0022B34BFCF73F
:1054800055F804000D00B24AB24BFCF74FF8B24A8F
:10549000B24BFBF70DF922002B00FCF747F8B04A9E
:1054A000B04BFCF7AFFA22002B00FCF73FF8AE4AF6
:1054B000AE4BFBF7FDF822002B00FCF737F8AC4AA7
:1054C000AC4BFCF79FFA22002B00FCF72FF8AA4AFE
:1054D000AA4BFBF7EDF822002B00FCF727F8A84AAF
:1054E00002900391A74B20002900FCF71FF8A64A61
:1054F000A64BFCF787FA22002B00FCF717F8A44A0A
:10550000A44BFBF7D5F822002B00FCF70FF8A24ABA
:10551000A24BFCF777FA22002B00FCF707F88A4B26
:105520000022FBF7C5F8049005912000290000F047
:1055300043FB9B4B009001919E4266DC00980199D1
:1055400002000B000F00FBF7B3F8049A059B0690CE
:10555000079102980399FBF7E7FB02000B000698FE
:105560000799FBF7E3FF00260290039132003B000E
:1055700030003900FBF7DAFF02000B0020002900A1
:10558000FCF740FA320004000D00009801993B003E
:10559000FBF78EF802000B0020002900FBF7C4FB8C
:1055A00002000B00FBF784F802000B00614862491F
:1055B000FCF728FA02000B0002980399FCF722FA84
:1055C000320004000D003B0030003900FBF770F89A
:1055D00002000B0055487349FCF714FA02000B0057
:1055E00020002900FCF70EFA02000B004F486D491D
:1055F000FCF708FA03000A004946002900DDFFE62F
:10560000802109068C466244FAE6049A059B0298BA
:105610000399FBF789FB009C019D22002B00FBF7FF
:1056200085FF22002B00FBF743F802000B00FBF77D
:105630003FF8404A404BFCF7E5F902000B003B48BD
:105640003B49FCF7DFF903000A00D5E73B0052466F
:10565000D6E602000B0038005146FBF767FF040056
:105660000D003B4A3B4BFBF761FF3B4A3B4BFBF7D3
:105670001FF822002B00FBF759FF394A394BFCF782
:10568000C1F922002B00FBF751FF374A374BFBF7DC
:105690000FF822002B00FBF749FF354A354BFCF78A
:1056A000B1F922002B00FBF741FF334A334BFAF7E5
:1056B000FFFF22002B00FBF739FF314A00900191D8
:1056C000304B20002900FBF731FF2F4A2F4BFCF70E
:1056D00099F922002B00FBF729FF2D4A2D4BFAF7F1
:1056E000E7FF22002B00FBF721FF2B4A2B4BFCF797
:1056F00089F922002B00FBF719FF0022124BFAF761
:10570000D7FF02000B0000980199FBF70DFB3A0050
:105710005346FBF70BFF3A005346FAF7C9FF030065
:105720000A006DE6FFFFEF3F000010C0182D445443
:10573000FB21F93F075C143326A6913CFFFFDF3FB6
:105740009C7500883CE4377E0000F03F0000E03F9D
:1057500009F7FD0DE13D023F88B20175E0EF493FD9
:105760003B8F68B52882A43F5544880E55C1C93F78
:105770007D6FEB0312D6D43F555555555555C53F52
:1057800082922EB1C5B8B33F59018D1B6C06E63F1E
:10579000C88A599CE52A00404B2D8A1C273A0340B1
:1057A0003233EF3FFB21E93FF0B54E465746DE4628
:1057B0004546E0B5DF4B4E00170089468FB07608AE
:1057C0009E4200DC8BE0DC4B9E4228DCDB4A002959
:1057D00000DC90E1DA4BFCF715F9D94B04000D0021
:1057E0009E4200D191E0D74AD74BFCF70BF902005B
:1057F0000B0020003A607B602900FCF703F9D24BD4
:10580000D04AFCF7FFF801239846B860F96040469B
:105810000FB0F0BCBB46B246A946A046F0BDCB4B8C
:105820009E4200DC8DE0CA4B9E4263DCC9493215C2
:105830008846904443461B05F51A29000400FCF7EE
:1058400091FCFCF7C5FC02000B0020002900089227
:105850000993FCF7D7F80022BF4BFBF767FE0D005A
:105860000400FCF77FFC0600FCF7B2FC02000B0012
:10587000200029000A920B93FCF7C4F80022B64BD3
:10588000FBF754FE002200230C900D91FAF7C2FDA5
:10589000002800D103E133005A1E93410133AF4A7F
:1058A00039000192022208A80092424600F074FBDF
:1058B0004B468046002BAADA802000068446796891
:1058C0003A6861440B00F9683A607B6061440B0000
:1058D000BA68BA60FB6043465B42984697E70200AD
:1058E0000B003A607B6000230022BA60FB6000235B
:1058F00098468CE70B000200FCF784F80023B860A0
:10590000F96098463860796081E7D3228E4B520562
:10591000FCF778F8924A934B04000D00FCF772F8FC
:1059200002000B0020003A607B602900FCF76AF857
:105930008C4B8B4AFCF766F80123B860F9609846F7
:1059400065E7FFF799FA884A884B04000D00FBF7DA
:10595000EDFD0022864BFAF7ABFEFCF703FC804618
:10596000FCF736FC754A764B04900591FBF7DEFD9B
:1059700002000B0020002900FCF744F8724B029053
:105980000391049805996F4AFBF7D0FD4346040044
:105990000D001F2B36DC774A013B9B009B58B3421E
:1059A00030D00298039922002B00FCF72BF8824696
:1059B0008B4652465B463A607B600298039952469A
:1059C0005B46FCF71FF822002B00FCF71BF80300D6
:1059D00008001A0019000300BA60FB604B46002B58
:1059E00000DB14E7802380241B069C464346554673
:1059F00024065C4460445B4298463D607C60B9602C
:105A0000F86004E72B00029803992200FBF7FAFFE5
:105A10004B0036155B0D82468B46F31A102BC8DD02
:105A200004980599D322484B5205FBF77FFD0400EB
:105A30000D0002000B0002980399FBF7E3FF020040
:105A40000B000298039906920793FBF7DBFF2200F5
:105A50002B00FBF7D7FF04000D0004980599404A7E
:105A6000404BFBF763FD22002B00FBF7CBFF0B0045
:105A7000020004000D0006980799FBF7C3FF4B00D6
:105A80005B0D82468B46F61A312E0ADC02000B00B3
:105A90003A607B60069A079B029203938DE703238B
:105AA000FDE6B822049805992E4B9205FBF73EFDC2
:105AB00004000D0002000B0006980799FBF7A2FFF7
:105AC00002000B000698079902920393FBF79AFFD6
:105AD00022002B00FBF796FF04000D0004980599A7
